{
	"data": {
		"bytecode": {
			"linkReferences": {},
			"object": "608060405234801562000010575f80fd5b50336040518060400160405280600d81526020017f4269727468646179546f6b656e000000000000000000000000000000000000008152506040518060400160405280600381526020017f424459000000000000000000000000000000000000000000000000000000000081525081600390816200008f919062000456565b508060049081620000a1919062000456565b5050505f73ffffffffffffffffffffffffffffffffffffffff168173ffffffffffffffffffffffffffffffffffffffff160362000117575f6040517f1e4fbdf70000000000000000000000000000000000000000000000000000000081526004016200010e91906200057d565b60405180910390fd5b62000128816200012f60201b60201c565b5062000598565b5f60055f9054906101000a900473ffffffffffffffffffffffffffffffffffffffff1690508160055f6101000a81548173ffffffffffffffffffffffffffffffffffffffff021916908373ffffffffffffffffffffffffffffffffffffffff1602179055508173ffffffffffffffffffffffffffffffffffffffff168173ffffffffffffffffffffffffffffffffffffffff167f8be0079c531659141344cd1fd0a4f28419497f9722a3daafe3b4186f6b6457e060405160405180910390a35050565b5f81519050919050565b7f4e487b71000000000000000000000000000000000000000000000000000000005f52604160045260245ffd5b7f4e487b71000000000000000000000000000000000000000000000000000000005f52602260045260245ffd5b5f60028204905060018216806200026e57607f821691505b60208210810362000284576200028362000229565b5b50919050565b5f819050815f5260205f209050919050565b5f6020601f8301049050919050565b5f82821b905092915050565b5f60088302620002e87fffffffffffffffffffffffffffffffffffffffffffffffffffffffffffffffff82620002ab565b620002f48683620002ab565b95508019841693508086168417925050509392505050565b5f819050919050565b5f819050919050565b5f6200033e6200033862000332846200030c565b62000315565b6200030c565b9050919050565b5f819050919050565b62000359836200031e565b62000371620003688262000345565b848454620002b7565b825550505050565b5f90565b6200038762000379565b620003948184846200034e565b505050565b5b81811015620003bb57620003af5f826200037d565b6001810190506200039a565b5050565b601f8211156200040a57620003d4816200028a565b620003df846200029c565b81016020851015620003ef578190505b62000407620003fe856200029c565b83018262000399565b50505b505050565b5f82821c905092915050565b5f6200042c5f19846008026200040f565b1980831691505092915050565b5f6200044683836200041b565b9150826002028217905092915050565b6200046182620001f2565b67ffffffffffffffff8111156200047d576200047c620001fc565b5b62000489825462000256565b62000496828285620003bf565b5f60209050601f831160018114620004cc575f8415620004b7578287015190505b620004c3858262000439565b86555062000532565b601f198416620004dc866200028a565b5f5b828110156200050557848901518255600182019150602085019450602081019050620004de565b8683101562000525578489015162000521601f8916826200041b565b8355505b6001600288020188555050505b505050505050565b5f73ffffffffffffffffffffffffffffffffffffffff82169050919050565b5f62000565826200053a565b9050919050565b620005778162000559565b82525050565b5f602082019050620005925f8301846200056c565b92915050565b61273e80620005a65f395ff3fe608060405234801561000f575f80fd5b5060043610610114575f3560e01c8063715018a6116100a0578063a9059cbb1161006f578063a9059cbb146102bc578063dd62ed3e146102ec578063f2fde38b1461031c578063f6cece5214610338578063ff4130dc1461035457610114565b8063715018a6146102465780638da5cb5b1461025057806395d89b411461026e578063a324ad241461028c57610114565b8063313ce567116100e7578063313ce567146101b4578063343b9066146101d25780634513a9a3146101dc57806365c72840146101e657806370a082311461021657610114565b806306fdde0314610118578063095ea7b31461013657806318160ddd1461016657806323b872dd14610184575b5f80fd5b610120610385565b60405161012d9190611d00565b60405180910390f35b610150600480360381019061014b9190611dbe565b610415565b60405161015d9190611e16565b60405180910390f35b61016e610437565b60405161017b9190611e3e565b60405180910390f35b61019e60048036038101906101999190611e57565b610440565b6040516101ab9190611e16565b60405180910390f35b6101bc61046e565b6040516101c99190611ec2565b60405180910390f35b6101da610476565b005b6101e4610576565b005b61020060048036038101906101fb9190611edb565b610620565b60405161020d9190611ec2565b60405180910390f35b610230600480360381019061022b9190611f06565b610635565b60405161023d9190611e3e565b60405180910390f35b61024e61067a565b005b61025861068d565b6040516102659190611f40565b60405180910390f35b6102766106b5565b6040516102839190611d00565b60405180910390f35b6102a660048036038101906102a19190611edb565b610745565b6040516102b39190611ec2565b60405180910390f35b6102d660048036038101906102d19190611dbe565b61075a565b6040516102e39190611e16565b60405180910390f35b61030660048036038101906103019190611f59565b61077c565b6040516103139190611e3e565b60405180910390f35b61033660048036038101906103319190611f06565b6107fe565b005b610352600480360381019061034d9190611fd7565b610882565b005b61036e60048036038101906103699190611edb565b6109db565b60405161037c92919061207b565b60405180910390f35b606060038054610394906120cf565b80601f01602080910402602001604051908101604052809291908181526020018280546103c0906120cf565b801561040b5780601f106103e25761010080835404028352916020019161040b565b820191905f5260205f20905b8154815290600101906020018083116103ee57829003601f168201915b5050505050905090565b5f8061041f6109fd565b905061042c818585610a04565b600191505092915050565b5f600254905090565b5f8061044a6109fd565b9050610457858285610a16565b610462858585610aa8565b60019150509392505050565b5f6012905090565b5f80610481426109db565b915091505f6104928360ff16610b98565b90505f6104a18360ff16610b98565b90505f6104f48360065f3373ffffffffffffffffffffffffffffffffffffffff1673ffffffffffffffffffffffffffffffffffffffff1681526020019081526020015f2054610baa90919063ffffffff16565b90505f6105478360075f3373ffffffffffffffffffffffffffffffffffffffff1673ffffffffffffffffffffffffffffffffffffffff1681526020019081526020015f2054610baa90919063ffffffff16565b905061055282610bbd565b61055b81610bbd565b61056e3368056bc75e2d63100000610c6a565b505050505050565b5f61058042610ce9565b90505f6105908261ffff16610df7565b90505f6105fe6105ef6105a36041610df7565b60085f3373ffffffffffffffffffffffffffffffffffffffff1673ffffffffffffffffffffffffffffffffffffffff1681526020019081526020015f2054610e0a90919063ffffffff16565b83610e1d90919063ffffffff16565b905061060981610bbd565b61061b33678ac7230489e80000610c6a565b505050565b5f61062a82610e30565b604001519050919050565b5f805f8373ffffffffffffffffffffffffffffffffffffffff1673ffffffffffffffffffffffffffffffffffffffff1681526020019081526020015f20549050919050565b610682611236565b61068b5f6112bd565b565b5f60055f9054906101000a900473ffffffffffffffffffffffffffffffffffffffff16905090565b6060600480546106c4906120cf565b80601f01602080910402602001604051908101604052809291908181526020018280546106f0906120cf565b801561073b5780601f106107125761010080835404028352916020019161073b565b820191905f5260205f20905b81548152906001019060200180831161071e57829003601f168201915b5050505050905090565b5f61074f82610e30565b602001519050919050565b5f806107646109fd565b9050610771818585610aa8565b600191505092915050565b5f60015f8473ffffffffffffffffffffffffffffffffffffffff1673ffffffffffffffffffffffffffffffffffffffff1681526020019081526020015f205f8373ffffffffffffffffffffffffffffffffffffffff1673ffffffffffffffffffffffffffffffffffffffff1681526020019081526020015f2054905092915050565b610806611236565b5f73ffffffffffffffffffffffffffffffffffffffff168173ffffffffffffffffffffffffffffffffffffffff1603610876575f6040517f1e4fbdf700000000000000000000000000000000000000000000000000000000815260040161086d9190611f40565b60405180910390fd5b61087f816112bd565b50565b5f6108958461089090612288565b611380565b90505f6108aa846108a590612288565b611380565b90505f6108bf846108ba906122ef565b611394565b905061090760065f3373ffffffffffffffffffffffffffffffffffffffff1673ffffffffffffffffffffffffffffffffffffffff1681526020019081526020015f20546113a8565b156109d3578260065f3373ffffffffffffffffffffffffffffffffffffffff1673ffffffffffffffffffffffffffffffffffffffff1681526020019081526020015f20819055508160075f3373ffffffffffffffffffffffffffffffffffffffff1673ffffffffffffffffffffffffffffffffffffffff1681526020019081526020015f20819055508060085f3373ffffffffffffffffffffffffffffffffffffffff1673ffffffffffffffffffffffffffffffffffffffff1681526020019081526020015f20819055505b505050505050565b5f805f6109e784610e30565b9050806040015181602001519250925050915091565b5f33905090565b610a1183838360016113b4565b505050565b5f610a21848461077c565b90507fffffffffffffffffffffffffffffffffffffffffffffffffffffffffffffffff8114610aa25781811015610a93578281836040517ffb8f41b2000000000000000000000000000000000000000000000000000000008152600401610a8a93929190612301565b60405180910390fd5b610aa184848484035f6113b4565b5b50505050565b5f73ffffffffffffffffffffffffffffffffffffffff168373ffffffffffffffffffffffffffffffffffffffff1603610b18575f6040517f96c6fd1e000000000000000000000000000000000000000000000000000000008152600401610b0f9190611f40565b60405180910390fd5b5f73ffffffffffffffffffffffffffffffffffffffff168273ffffffffffffffffffffffffffffffffffffffff1603610b88575f6040517fec442f05000000000000000000000000000000000000000000000000000000008152600401610b7f9190611f40565b60405180910390fd5b610b93838383611583565b505050565b5f610ba3825f61179c565b9050919050565b5f610bb58383611839565b905092915050565b610bc6816118ab565b610bd657610bd35f6118b7565b90505b5f8190505f610be4826118c9565b9050608073ffffffffffffffffffffffffffffffffffffffff16637d23f1db5f836040518363ffffffff1660e01b8152600401610c22929190612388565b5f60405180830381865afa158015610c3c573d5f803e3d5ffd5b505050506040513d5f823e3d601f19601f82011682018060405250810190610c649190612424565b50505050565b5f73ffffffffffffffffffffffffffffffffffffffff168273ffffffffffffffffffffffffffffffffffffffff1603610cda575f6040517fec442f05000000000000000000000000000000000000000000000000000000008152600401610cd19190611f40565b60405180910390fd5b610ce55f8383611583565b5050565b5f805f90505f805f6301e1338090505f6301e2850090508187610d0c91906124c5565b6107b2610d1991906124f5565b9350610d266107b2611926565b610d338561ffff16611926565b610d3d9190612528565b92508281610d4b919061255b565b85610d5691906124f5565b9450826107b285610d6791906125a9565b61ffff16610d759190612528565b82610d80919061255b565b85610d8b91906124f5565b94505b86851115610dea57610daf600185610da691906125a9565b61ffff16611979565b15610dc7578085610dc09190612528565b9450610dd6565b8185610dd39190612528565b94505b600184610de391906125a9565b9350610d8e565b8395505050505050919050565b5f610e0382600161179c565b9050919050565b5f610e1583836119d7565b905092915050565b5f610e288383611a49565b905092915050565b610e38611c2b565b5f80805f6301e1338090505f6301e2850090505f620151809050610e5b88610ce9565b875f019061ffff16908161ffff1681525050610e786107b2611926565b610e88885f015161ffff16611926565b610e929190612528565b94508482610ea0919061255b565b86610eab91906124f5565b9550846107b2885f0151610ebf91906125a9565b61ffff16610ecd9190612528565b83610ed8919061255b565b86610ee391906124f5565b9550610eed611c53565b601f815f600c8110610f0257610f016125de565b5b602002019060ff16908160ff1681525050610f23885f015161ffff16611979565b15610f5457601d816001600c8110610f3e57610f3d6125de565b5b602002019060ff16908160ff1681525050610f7c565b601c816001600c8110610f6a57610f696125de565b5b602002019060ff16908160ff16815250505b601f816002600c8110610f9257610f916125de565b5b602002019060ff16908160ff1681525050601e816003600c8110610fb957610fb86125de565b5b602002019060ff16908160ff1681525050601f816004600c8110610fe057610fdf6125de565b5b602002019060ff16908160ff1681525050601e816005600c8110611007576110066125de565b5b602002019060ff16908160ff1681525050601f816006600c811061102e5761102d6125de565b5b602002019060ff16908160ff1681525050601f816007600c8110611055576110546125de565b5b602002019060ff16908160ff1681525050601e816008600c811061107c5761107b6125de565b5b602002019060ff16908160ff1681525050601f816009600c81106110a3576110a26125de565b5b602002019060ff16908160ff1681525050601e81600a600c81106110ca576110c96125de565b5b602002019060ff16908160ff1681525050601f81600b600c81106110f1576110f06125de565b5b602002019060ff16908160ff1681525050600194505b600c8560ff16116111a3578460ff16600c8561112391906124c5565b61112d919061255b565b955088868861113c91906124f5565b11156111905784886020019060ff16908160ff1681525050600185611161919061260b565b60ff16600c8561117191906124c5565b61117b919061255b565b9550858761118991906124f5565b96506111a3565b848061119b9061263f565b955050611107565b600194505b80600189602001516111ba919061260b565b60ff16600c81106111ce576111cd6125de565b5b602002015160ff168560ff161161122a578882886111ec91906124f5565b11156112095784886040019060ff16908160ff168152505061122a565b818761121591906124f5565b965084806112229061263f565b9550506111a8565b50505050505050919050565b61123e6109fd565b73ffffffffffffffffffffffffffffffffffffffff1661125c61068d565b73ffffffffffffffffffffffffffffffffffffffff16146112bb5761127f6109fd565b6040517f118cdaa70000000000000000000000000000000000000000000000000000000081526004016112b29190611f40565b60405180910390fd5b565b5f60055f9054906101000a900473ffffffffffffffffffffffffffffffffffffffff1690508160055f6101000a81548173ffffffffffffffffffffffffffffffffffffffff021916908373ffffffffffffffffffffffffffffffffffffffff1602179055508173ffffffffffffffffffffffffffffffffffffffff168173ffffffffffffffffffffffffffffffffffffffff167f8be0079c531659141344cd1fd0a4f28419497f9722a3daafe3b4186f6b6457e060405160405180910390a35050565b5f61138d825f0151611abc565b9050919050565b5f6113a1825f0151611ace565b9050919050565b5f808214159050919050565b5f73ffffffffffffffffffffffffffffffffffffffff168473ffffffffffffffffffffffffffffffffffffffff1603611424575f6040517fe602df0500000000000000000000000000000000000000000000000000000000815260040161141b9190611f40565b60405180910390fd5b5f73ffffffffffffffffffffffffffffffffffffffff168373ffffffffffffffffffffffffffffffffffffffff1603611494575f6040517f94280d6200000000000000000000000000000000000000000000000000000000815260040161148b9190611f40565b60405180910390fd5b8160015f8673ffffffffffffffffffffffffffffffffffffffff1673ffffffffffffffffffffffffffffffffffffffff1681526020019081526020015f205f8573ffffffffffffffffffffffffffffffffffffffff1673ffffffffffffffffffffffffffffffffffffffff1681526020019081526020015f2081905550801561157d578273ffffffffffffffffffffffffffffffffffffffff168473ffffffffffffffffffffffffffffffffffffffff167f8c5be1e5ebec7d5bd14f71427d1e84f3dd0314c0f7b2291e5b200ac8c7c3b925846040516115749190611e3e565b60405180910390a35b50505050565b5f73ffffffffffffffffffffffffffffffffffffffff168373ffffffffffffffffffffffffffffffffffffffff16036115d3578060025f8282546115c791906124f5565b925050819055506116a1565b5f805f8573ffffffffffffffffffffffffffffffffffffffff1673ffffffffffffffffffffffffffffffffffffffff1681526020019081526020015f205490508181101561165c578381836040517fe450d38c00000000000000000000000000000000000000000000000000000000815260040161165393929190612301565b60405180910390fd5b8181035f808673ffffffffffffffffffffffffffffffffffffffff1673ffffffffffffffffffffffffffffffffffffffff1681526020019081526020015f2081905550505b5f73ffffffffffffffffffffffffffffffffffffffff168273ffffffffffffffffffffffffffffffffffffffff16036116e8578060025f8282540392505081905550611732565b805f808473ffffffffffffffffffffffffffffffffffffffff1673ffffffffffffffffffffffffffffffffffffffff1681526020019081526020015f205f82825401925050819055505b8173ffffffffffffffffffffffffffffffffffffffff168373ffffffffffffffffffffffffffffffffffffffff167fddf252ad1be2c89b69c2b068fc378daa952ba7f163c4a11628f55a4df523b3ef8360405161178f9190611e3e565b60405180910390a3505050565b5f6060608073ffffffffffffffffffffffffffffffffffffffff166319e1c5c46117c5866118c9565b856040518363ffffffff1660e01b81526004016117e3929190612667565b5f60405180830381865afa1580156117fd573d5f803e3d5ffd5b505050506040513d5f823e3d601f19601f820116820180604052508101906118259190612424565b905061183081611ae1565b91505092915050565b5f611843836113a8565b611853576118505f610b98565b92505b61185c826113a8565b61186c576118695f610b98565b91505b5f8390505f8390505f61189d5f8484608073ffffffffffffffffffffffffffffffffffffffff166392348b34611aee565b905080935050505092915050565b5f808214159050919050565b5f6118c2825f61179c565b9050919050565b6060602067ffffffffffffffff8111156118e6576118e5612103565b5b6040519080825280601f01601f1916602001820160405280156119185781602001600182028036833780820191505090505b509050816020820152919050565b5f6001826119349190612528565b91506101908261194491906124c5565b60648361195191906124c5565b60048461195e91906124c5565b6119689190612528565b61197291906124f5565b9050919050565b5f806004836119889190612695565b14611995575f90506119d2565b5f6064836119a39190612695565b146119b157600190506119d2565b5f610190836119c09190612695565b146119cd575f90506119d2565b600190505b919050565b5f6119e183611b7d565b6119f1576119ee5f610df7565b92505b6119fa82611b7d565b611a0a57611a075f610df7565b91505b5f8390505f8390505f611a3b60018484608073ffffffffffffffffffffffffffffffffffffffff16622df619611aee565b905080935050505092915050565b5f611a5383611b7d565b611a6357611a605f610df7565b92505b611a6c82611b7d565b611a7c57611a795f610df7565b91505b5f8390505f8390505f611aae60018484608073ffffffffffffffffffffffffffffffffffffffff1663874b1c10611aee565b905080935050505092915050565b5f611ac7825f611b89565b9050919050565b5f611ada826001611b89565b9050919050565b5f60208201519050919050565b5f6060838388611afd896118c9565b611b06896118c9565b6040518463ffffffff1660e01b8152600401611b24939291906126c5565b5f60405180830381865afa158015611b3e573d5f803e3d5ffd5b505050506040513d5f823e3d601f19601f82011682018060405250810190611b669190612424565b9050611b7181611c1e565b91505095945050505050565b5f808214159050919050565b5f6060608073ffffffffffffffffffffffffffffffffffffffff16635fa55ca784866040518363ffffffff1660e01b8152600401611bc8929190612388565b5f60405180830381865afa158015611be2573d5f803e3d5ffd5b505050506040513d5f823e3d601f19601f82011682018060405250810190611c0a9190612424565b9050611c1581611ae1565b91505092915050565b5f60208201519050919050565b60405180606001604052805f61ffff1681526020015f60ff1681526020015f60ff1681525090565b604051806101800160405280600c90602082028036833780820191505090505090565b5f81519050919050565b5f82825260208201905092915050565b5f5b83811015611cad578082015181840152602081019050611c92565b5f8484015250505050565b5f601f19601f8301169050919050565b5f611cd282611c76565b611cdc8185611c80565b9350611cec818560208601611c90565b611cf581611cb8565b840191505092915050565b5f6020820190508181035f830152611d188184611cc8565b905092915050565b5f604051905090565b5f80fd5b5f80fd5b5f73ffffffffffffffffffffffffffffffffffffffff82169050919050565b5f611d5a82611d31565b9050919050565b611d6a81611d50565b8114611d74575f80fd5b50565b5f81359050611d8581611d61565b92915050565b5f819050919050565b611d9d81611d8b565b8114611da7575f80fd5b50565b5f81359050611db881611d94565b92915050565b5f8060408385031215611dd457611dd3611d29565b5b5f611de185828601611d77565b9250506020611df285828601611daa565b9150509250929050565b5f8115159050919050565b611e1081611dfc565b82525050565b5f602082019050611e295f830184611e07565b92915050565b611e3881611d8b565b82525050565b5f602082019050611e515f830184611e2f565b92915050565b5f805f60608486031215611e6e57611e6d611d29565b5b5f611e7b86828701611d77565b9350506020611e8c86828701611d77565b9250506040611e9d86828701611daa565b9150509250925092565b5f60ff82169050919050565b611ebc81611ea7565b82525050565b5f602082019050611ed55f830184611eb3565b92915050565b5f60208284031215611ef057611eef611d29565b5b5f611efd84828501611daa565b91505092915050565b5f60208284031215611f1b57611f1a611d29565b5b5f611f2884828501611d77565b91505092915050565b611f3a81611d50565b82525050565b5f602082019050611f535f830184611f31565b92915050565b5f8060408385031215611f6f57611f6e611d29565b5b5f611f7c85828601611d77565b9250506020611f8d85828601611d77565b9150509250929050565b5f80fd5b5f60208284031215611fb057611faf611f97565b5b81905092915050565b5f60208284031215611fce57611fcd611f97565b5b81905092915050565b5f805f60608486031215611fee57611fed611d29565b5b5f84013567ffffffffffffffff81111561200b5761200a611d2d565b5b61201786828701611f9b565b935050602084013567ffffffffffffffff81111561203857612037611d2d565b5b61204486828701611f9b565b925050604084013567ffffffffffffffff81111561206557612064611d2d565b5b61207186828701611fb9565b9150509250925092565b5f60408201905061208e5f830185611eb3565b61209b6020830184611eb3565b9392505050565b7f4e487b71000000000000000000000000000000000000000000000000000000005f52602260045260245ffd5b5f60028204905060018216806120e657607f821691505b6020821081036120f9576120f86120a2565b5b50919050565b5f80fd5b7f4e487b71000000000000000000000000000000000000000000000000000000005f52604160045260245ffd5b61213982611cb8565b810181811067ffffffffffffffff8211171561215857612157612103565b5b80604052505050565b5f61216a611d20565b90506121768282612130565b919050565b5f80fd5b5f80fd5b5f80fd5b5f67ffffffffffffffff8211156121a1576121a0612103565b5b6121aa82611cb8565b9050602081019050919050565b828183375f83830152505050565b5f6121d76121d284612187565b612161565b9050828152602081018484840111156121f3576121f2612183565b5b6121fe8482856121b7565b509392505050565b5f82601f83011261221a5761221961217f565b5b813561222a8482602086016121c5565b91505092915050565b5f60208284031215612248576122476120ff565b5b6122526020612161565b90505f82013567ffffffffffffffff8111156122715761227061217b565b5b61227d84828501612206565b5f8301525092915050565b5f6122933683612233565b9050919050565b5f602082840312156122af576122ae6120ff565b5b6122b96020612161565b90505f82013567ffffffffffffffff8111156122d8576122d761217b565b5b6122e484828501612206565b5f8301525092915050565b5f6122fa368361229a565b9050919050565b5f6060820190506123145f830186611f31565b6123216020830185611e2f565b61232e6040830184611e2f565b949350505050565b5f81519050919050565b5f82825260208201905092915050565b5f61235a82612336565b6123648185612340565b9350612374818560208601611c90565b61237d81611cb8565b840191505092915050565b5f60408201905061239b5f830185611eb3565b81810360208301526123ad8184612350565b90509392505050565b5f6123c86123c384612187565b612161565b9050828152602081018484840111156123e4576123e3612183565b5b6123ef848285611c90565b509392505050565b5f82601f83011261240b5761240a61217f565b5b815161241b8482602086016123b6565b91505092915050565b5f6020828403121561243957612438611d29565b5b5f82015167ffffffffffffffff81111561245657612455611d2d565b5b612462848285016123f7565b91505092915050565b7f4e487b71000000000000000000000000000000000000000000000000000000005f52601260045260245ffd5b7f4e487b71000000000000000000000000000000000000000000000000000000005f52601160045260245ffd5b5f6124cf82611d8b565b91506124da83611d8b565b9250826124ea576124e961246b565b5b828204905092915050565b5f6124ff82611d8b565b915061250a83611d8b565b925082820190508082111561252257612521612498565b5b92915050565b5f61253282611d8b565b915061253d83611d8b565b925082820390508181111561255557612554612498565b5b92915050565b5f61256582611d8b565b915061257083611d8b565b925082820261257e81611d8b565b9150828204841483151761259557612594612498565b5b5092915050565b5f61ffff82169050919050565b5f6125b38261259c565b91506125be8361259c565b9250828203905061ffff8111156125d8576125d7612498565b5b92915050565b7f4e487b71000000000000000000000000000000000000000000000000000000005f52603260045260245ffd5b5f61261582611ea7565b915061262083611ea7565b9250828203905060ff81111561263957612638612498565b5b92915050565b5f61264982611ea7565b915060ff820361265c5761265b612498565b5b600182019050919050565b5f6040820190508181035f83015261267f8185612350565b905061268e6020830184611eb3565b9392505050565b5f61269f82611d8b565b91506126aa83611d8b565b9250826126ba576126b961246b565b5b828206905092915050565b5f6060820190506126d85f830186611eb3565b81810360208301526126ea8185612350565b905081810360408301526126fe8184612350565b905094935050505056fea2646970667358221220b214a66f9e32cf940bbbe92d799acaf4645433b5c03dd08fd14ddeed0e02053464736f6c63430008180033",
			"opcodes": "PUSH1 0x80 PUSH1 0x40 MSTORE CALLVALUE DUP1 ISZERO PUSH3 0x10 JUMPI PUSH0 DUP1 REVERT JUMPDEST POP CALLER PUSH1 0x40 MLOAD DUP1 PUSH1 0x40 ADD PUSH1 0x40 MSTORE DUP1 PUSH1 0xD DUP2 MSTORE PUSH1 0x20 ADD PUSH32 0x4269727468646179546F6B656E00000000000000000000000000000000000000 DUP2 MSTORE POP PUSH1 0x40 MLOAD DUP1 PUSH1 0x40 ADD PUSH1 0x40 MSTORE DUP1 PUSH1 0x3 DUP2 MSTORE PUSH1 0x20 ADD PUSH32 0x4244590000000000000000000000000000000000000000000000000000000000 DUP2 MSTORE POP DUP2 PUSH1 0x3 SWAP1 DUP2 PUSH3 0x8F SWAP2 SWAP1 PUSH3 0x456 JUMP JUMPDEST POP DUP1 PUSH1 0x4 SWAP1 DUP2 PUSH3 0xA1 SWAP2 SWAP1 PUSH3 0x456 JUMP JUMPDEST POP POP POP PUSH0 PUSH20 0xFFFFFFFFFFFFFFFFFFFFFFFFFFFFFFFFFFFFFFFF AND DUP2 PUSH20 0xFFFFFFFFFFFFFFFFFFFFFFFFFFFFFFFFFFFFFFFF AND SUB PUSH3 0x117 JUMPI PUSH0 PUSH1 0x40 MLOAD PUSH32 0x1E4FBDF700000000000000000000000000000000000000000000000000000000 DUP2 MSTORE PUSH1 0x4 ADD PUSH3 0x10E SWAP2 SWAP1 PUSH3 0x57D JUMP JUMPDEST PUSH1 0x40 MLOAD DUP1 SWAP2 SUB SWAP1 REVERT JUMPDEST PUSH3 0x128 DUP2 PUSH3 0x12F PUSH1 0x20 SHL PUSH1 0x20 SHR JUMP JUMPDEST POP PUSH3 0x598 JUMP JUMPDEST PUSH0 PUSH1 0x5 PUSH0 SWAP1 SLOAD SWAP1 PUSH2 0x100 EXP SWAP1 DIV PUSH20 0xFFFFFFFFFFFFFFFFFFFFFFFFFFFFFFFFFFFFFFFF AND SWAP1 POP DUP2 PUSH1 0x5 PUSH0 PUSH2 0x100 EXP DUP2 SLOAD DUP2 PUSH20 0xFFFFFFFFFFFFFFFFFFFFFFFFFFFFFFFFFFFFFFFF MUL NOT AND SWAP1 DUP4 PUSH20 0xFFFFFFFFFFFFFFFFFFFFFFFFFFFFFFFFFFFFFFFF AND MUL OR SWAP1 SSTORE POP DUP2 PUSH20 0xFFFFFFFFFFFFFFFFFFFFFFFFFFFFFFFFFFFFFFFF AND DUP2 PUSH20 0xFFFFFFFFFFFFFFFFFFFFFFFFFFFFFFFFFFFFFFFF AND PUSH32 0x8BE0079C531659141344CD1FD0A4F28419497F9722A3DAAFE3B4186F6B6457E0 PUSH1 0x40 MLOAD PUSH1 0x40 MLOAD DUP1 SWAP2 SUB SWAP1 LOG3 POP POP JUMP JUMPDEST PUSH0 DUP2 MLOAD SWAP1 POP SWAP2 SWAP1 POP JUMP JUMPDEST PUSH32 0x4E487B7100000000000000000000000000000000000000000000000000000000 PUSH0 MSTORE PUSH1 0x41 PUSH1 0x4 MSTORE PUSH1 0x24 PUSH0 REVERT JUMPDEST PUSH32 0x4E487B7100000000000000000000000000000000000000000000000000000000 PUSH0 MSTORE PUSH1 0x22 PUSH1 0x4 MSTORE PUSH1 0x24 PUSH0 REVERT JUMPDEST PUSH0 PUSH1 0x2 DUP3 DIV SWAP1 POP PUSH1 0x1 DUP3 AND DUP1 PUSH3 0x26E JUMPI PUSH1 0x7F DUP3 AND SWAP2 POP JUMPDEST PUSH1 0x20 DUP3 LT DUP2 SUB PUSH3 0x284 JUMPI PUSH3 0x283 PUSH3 0x229 JUMP JUMPDEST JUMPDEST POP SWAP2 SWAP1 POP JUMP JUMPDEST PUSH0 DUP2 SWAP1 POP DUP2 PUSH0 MSTORE PUSH1 0x20 PUSH0 KECCAK256 SWAP1 POP SWAP2 SWAP1 POP JUMP JUMPDEST PUSH0 PUSH1 0x20 PUSH1 0x1F DUP4 ADD DIV SWAP1 POP SWAP2 SWAP1 POP JUMP JUMPDEST PUSH0 DUP3 DUP3 SHL SWAP1 POP SWAP3 SWAP2 POP POP JUMP JUMPDEST PUSH0 PUSH1 0x8 DUP4 MUL PUSH3 0x2E8 PUSH32 0xFFFFFFFFFFFFFFFFFFFFFFFFFFFFFFFFFFFFFFFFFFFFFFFFFFFFFFFFFFFFFFFF DUP3 PUSH3 0x2AB JUMP JUMPDEST PUSH3 0x2F4 DUP7 DUP4 PUSH3 0x2AB JUMP JUMPDEST SWAP6 POP DUP1 NOT DUP5 AND SWAP4 POP DUP1 DUP7 AND DUP5 OR SWAP3 POP POP POP SWAP4 SWAP3 POP POP POP JUMP JUMPDEST PUSH0 DUP2 SWAP1 POP SWAP2 SWAP1 POP JUMP JUMPDEST PUSH0 DUP2 SWAP1 POP SWAP2 SWAP1 POP JUMP JUMPDEST PUSH0 PUSH3 0x33E PUSH3 0x338 PUSH3 0x332 DUP5 PUSH3 0x30C JUMP JUMPDEST PUSH3 0x315 JUMP JUMPDEST PUSH3 0x30C JUMP JUMPDEST SWAP1 POP SWAP2 SWAP1 POP JUMP JUMPDEST PUSH0 DUP2 SWAP1 POP SWAP2 SWAP1 POP JUMP JUMPDEST PUSH3 0x359 DUP4 PUSH3 0x31E JUMP JUMPDEST PUSH3 0x371 PUSH3 0x368 DUP3 PUSH3 0x345 JUMP JUMPDEST DUP5 DUP5 SLOAD PUSH3 0x2B7 JUMP JUMPDEST DUP3 SSTORE POP POP POP POP JUMP JUMPDEST PUSH0 SWAP1 JUMP JUMPDEST PUSH3 0x387 PUSH3 0x379 JUMP JUMPDEST PUSH3 0x394 DUP2 DUP5 DUP5 PUSH3 0x34E JUMP JUMPDEST POP POP POP JUMP JUMPDEST JUMPDEST DUP2 DUP2 LT ISZERO PUSH3 0x3BB JUMPI PUSH3 0x3AF PUSH0 DUP3 PUSH3 0x37D JUMP JUMPDEST PUSH1 0x1 DUP2 ADD SWAP1 POP PUSH3 0x39A JUMP JUMPDEST POP POP JUMP JUMPDEST PUSH1 0x1F DUP3 GT ISZERO PUSH3 0x40A JUMPI PUSH3 0x3D4 DUP2 PUSH3 0x28A JUMP JUMPDEST PUSH3 0x3DF DUP5 PUSH3 0x29C JUMP JUMPDEST DUP2 ADD PUSH1 0x20 DUP6 LT ISZERO PUSH3 0x3EF JUMPI DUP2 SWAP1 POP JUMPDEST PUSH3 0x407 PUSH3 0x3FE DUP6 PUSH3 0x29C JUMP JUMPDEST DUP4 ADD DUP3 PUSH3 0x399 JUMP JUMPDEST POP POP JUMPDEST POP POP POP JUMP JUMPDEST PUSH0 DUP3 DUP3 SHR SWAP1 POP SWAP3 SWAP2 POP POP JUMP JUMPDEST PUSH0 PUSH3 0x42C PUSH0 NOT DUP5 PUSH1 0x8 MUL PUSH3 0x40F JUMP JUMPDEST NOT DUP1 DUP4 AND SWAP2 POP POP SWAP3 SWAP2 POP POP JUMP JUMPDEST PUSH0 PUSH3 0x446 DUP4 DUP4 PUSH3 0x41B JUMP JUMPDEST SWAP2 POP DUP3 PUSH1 0x2 MUL DUP3 OR SWAP1 POP SWAP3 SWAP2 POP POP JUMP JUMPDEST PUSH3 0x461 DUP3 PUSH3 0x1F2 JUMP JUMPDEST PUSH8 0xFFFFFFFFFFFFFFFF DUP2 GT ISZERO PUSH3 0x47D JUMPI PUSH3 0x47C PUSH3 0x1FC JUMP JUMPDEST JUMPDEST PUSH3 0x489 DUP3 SLOAD PUSH3 0x256 JUMP JUMPDEST PUSH3 0x496 DUP3 DUP3 DUP6 PUSH3 0x3BF JUMP JUMPDEST PUSH0 PUSH1 0x20 SWAP1 POP PUSH1 0x1F DUP4 GT PUSH1 0x1 DUP2 EQ PUSH3 0x4CC JUMPI PUSH0 DUP5 ISZERO PUSH3 0x4B7 JUMPI DUP3 DUP8 ADD MLOAD SWAP1 POP JUMPDEST PUSH3 0x4C3 DUP6 DUP3 PUSH3 0x439 JUMP JUMPDEST DUP7 SSTORE POP PUSH3 0x532 JUMP JUMPDEST PUSH1 0x1F NOT DUP5 AND PUSH3 0x4DC DUP7 PUSH3 0x28A JUMP JUMPDEST PUSH0 JUMPDEST DUP3 DUP2 LT ISZERO PUSH3 0x505 JUMPI DUP5 DUP10 ADD MLOAD DUP3 SSTORE PUSH1 0x1 DUP3 ADD SWAP2 POP PUSH1 0x20 DUP6 ADD SWAP5 POP PUSH1 0x20 DUP2 ADD SWAP1 POP PUSH3 0x4DE JUMP JUMPDEST DUP7 DUP4 LT ISZERO PUSH3 0x525 JUMPI DUP5 DUP10 ADD MLOAD PUSH3 0x521 PUSH1 0x1F DUP10 AND DUP3 PUSH3 0x41B JUMP JUMPDEST DUP4 SSTORE POP JUMPDEST PUSH1 0x1 PUSH1 0x2 DUP9 MUL ADD DUP9 SSTORE POP POP POP JUMPDEST POP POP POP POP POP POP JUMP JUMPDEST PUSH0 PUSH20 0xFFFFFFFFFFFFFFFFFFFFFFFFFFFFFFFFFFFFFFFF DUP3 AND SWAP1 POP SWAP2 SWAP1 POP JUMP JUMPDEST PUSH0 PUSH3 0x565 DUP3 PUSH3 0x53A JUMP JUMPDEST SWAP1 POP SWAP2 SWAP1 POP JUMP JUMPDEST PUSH3 0x577 DUP2 PUSH3 0x559 JUMP JUMPDEST DUP3 MSTORE POP POP JUMP JUMPDEST PUSH0 PUSH1 0x20 DUP3 ADD SWAP1 POP PUSH3 0x592 PUSH0 DUP4 ADD DUP5 PUSH3 0x56C JUMP JUMPDEST SWAP3 SWAP2 POP POP JUMP JUMPDEST PUSH2 0x273E DUP1 PUSH3 0x5A6 PUSH0 CODECOPY PUSH0 RETURN INVALID PUSH1 0x80 PUSH1 0x40 MSTORE CALLVALUE DUP1 ISZERO PUSH2 0xF JUMPI PUSH0 DUP1 REVERT JUMPDEST POP PUSH1 0x4 CALLDATASIZE LT PUSH2 0x114 JUMPI PUSH0 CALLDATALOAD PUSH1 0xE0 SHR DUP1 PUSH4 0x715018A6 GT PUSH2 0xA0 JUMPI DUP1 PUSH4 0xA9059CBB GT PUSH2 0x6F JUMPI DUP1 PUSH4 0xA9059CBB EQ PUSH2 0x2BC JUMPI DUP1 PUSH4 0xDD62ED3E EQ PUSH2 0x2EC JUMPI DUP1 PUSH4 0xF2FDE38B EQ PUSH2 0x31C JUMPI DUP1 PUSH4 0xF6CECE52 EQ PUSH2 0x338 JUMPI DUP1 PUSH4 0xFF4130DC EQ PUSH2 0x354 JUMPI PUSH2 0x114 JUMP JUMPDEST DUP1 PUSH4 0x715018A6 EQ PUSH2 0x246 JUMPI DUP1 PUSH4 0x8DA5CB5B EQ PUSH2 0x250 JUMPI DUP1 PUSH4 0x95D89B41 EQ PUSH2 0x26E JUMPI DUP1 PUSH4 0xA324AD24 EQ PUSH2 0x28C JUMPI PUSH2 0x114 JUMP JUMPDEST DUP1 PUSH4 0x313CE567 GT PUSH2 0xE7 JUMPI DUP1 PUSH4 0x313CE567 EQ PUSH2 0x1B4 JUMPI DUP1 PUSH4 0x343B9066 EQ PUSH2 0x1D2 JUMPI DUP1 PUSH4 0x4513A9A3 EQ PUSH2 0x1DC JUMPI DUP1 PUSH4 0x65C72840 EQ PUSH2 0x1E6 JUMPI DUP1 PUSH4 0x70A08231 EQ PUSH2 0x216 JUMPI PUSH2 0x114 JUMP JUMPDEST DUP1 PUSH4 0x6FDDE03 EQ PUSH2 0x118 JUMPI DUP1 PUSH4 0x95EA7B3 EQ PUSH2 0x136 JUMPI DUP1 PUSH4 0x18160DDD EQ PUSH2 0x166 JUMPI DUP1 PUSH4 0x23B872DD EQ PUSH2 0x184 JUMPI JUMPDEST PUSH0 DUP1 REVERT JUMPDEST PUSH2 0x120 PUSH2 0x385 JUMP JUMPDEST PUSH1 0x40 MLOAD PUSH2 0x12D SWAP2 SWAP1 PUSH2 0x1D00 JUMP JUMPDEST PUSH1 0x40 MLOAD DUP1 SWAP2 SUB SWAP1 RETURN JUMPDEST PUSH2 0x150 PUSH1 0x4 DUP1 CALLDATASIZE SUB DUP2 ADD SWAP1 PUSH2 0x14B SWAP2 SWAP1 PUSH2 0x1DBE JUMP JUMPDEST PUSH2 0x415 JUMP JUMPDEST PUSH1 0x40 MLOAD PUSH2 0x15D SWAP2 SWAP1 PUSH2 0x1E16 JUMP JUMPDEST PUSH1 0x40 MLOAD DUP1 SWAP2 SUB SWAP1 RETURN JUMPDEST PUSH2 0x16E PUSH2 0x437 JUMP JUMPDEST PUSH1 0x40 MLOAD PUSH2 0x17B SWAP2 SWAP1 PUSH2 0x1E3E JUMP JUMPDEST PUSH1 0x40 MLOAD DUP1 SWAP2 SUB SWAP1 RETURN JUMPDEST PUSH2 0x19E PUSH1 0x4 DUP1 CALLDATASIZE SUB DUP2 ADD SWAP1 PUSH2 0x199 SWAP2 SWAP1 PUSH2 0x1E57 JUMP JUMPDEST PUSH2 0x440 JUMP JUMPDEST PUSH1 0x40 MLOAD PUSH2 0x1AB SWAP2 SWAP1 PUSH2 0x1E16 JUMP JUMPDEST PUSH1 0x40 MLOAD DUP1 SWAP2 SUB SWAP1 RETURN JUMPDEST PUSH2 0x1BC PUSH2 0x46E JUMP JUMPDEST PUSH1 0x40 MLOAD PUSH2 0x1C9 SWAP2 SWAP1 PUSH2 0x1EC2 JUMP JUMPDEST PUSH1 0x40 MLOAD DUP1 SWAP2 SUB SWAP1 RETURN JUMPDEST PUSH2 0x1DA PUSH2 0x476 JUMP JUMPDEST STOP JUMPDEST PUSH2 0x1E4 PUSH2 0x576 JUMP JUMPDEST STOP JUMPDEST PUSH2 0x200 PUSH1 0x4 DUP1 CALLDATASIZE SUB DUP2 ADD SWAP1 PUSH2 0x1FB SWAP2 SWAP1 PUSH2 0x1EDB JUMP JUMPDEST PUSH2 0x620 JUMP JUMPDEST PUSH1 0x40 MLOAD PUSH2 0x20D SWAP2 SWAP1 PUSH2 0x1EC2 JUMP JUMPDEST PUSH1 0x40 MLOAD DUP1 SWAP2 SUB SWAP1 RETURN JUMPDEST PUSH2 0x230 PUSH1 0x4 DUP1 CALLDATASIZE SUB DUP2 ADD SWAP1 PUSH2 0x22B SWAP2 SWAP1 PUSH2 0x1F06 JUMP JUMPDEST PUSH2 0x635 JUMP JUMPDEST PUSH1 0x40 MLOAD PUSH2 0x23D SWAP2 SWAP1 PUSH2 0x1E3E JUMP JUMPDEST PUSH1 0x40 MLOAD DUP1 SWAP2 SUB SWAP1 RETURN JUMPDEST PUSH2 0x24E PUSH2 0x67A JUMP JUMPDEST STOP JUMPDEST PUSH2 0x258 PUSH2 0x68D JUMP JUMPDEST PUSH1 0x40 MLOAD PUSH2 0x265 SWAP2 SWAP1 PUSH2 0x1F40 JUMP JUMPDEST PUSH1 0x40 MLOAD DUP1 SWAP2 SUB SWAP1 RETURN JUMPDEST PUSH2 0x276 PUSH2 0x6B5 JUMP JUMPDEST PUSH1 0x40 MLOAD PUSH2 0x283 SWAP2 SWAP1 PUSH2 0x1D00 JUMP JUMPDEST PUSH1 0x40 MLOAD DUP1 SWAP2 SUB SWAP1 RETURN JUMPDEST PUSH2 0x2A6 PUSH1 0x4 DUP1 CALLDATASIZE SUB DUP2 ADD SWAP1 PUSH2 0x2A1 SWAP2 SWAP1 PUSH2 0x1EDB JUMP JUMPDEST PUSH2 0x745 JUMP JUMPDEST PUSH1 0x40 MLOAD PUSH2 0x2B3 SWAP2 SWAP1 PUSH2 0x1EC2 JUMP JUMPDEST PUSH1 0x40 MLOAD DUP1 SWAP2 SUB SWAP1 RETURN JUMPDEST PUSH2 0x2D6 PUSH1 0x4 DUP1 CALLDATASIZE SUB DUP2 ADD SWAP1 PUSH2 0x2D1 SWAP2 SWAP1 PUSH2 0x1DBE JUMP JUMPDEST PUSH2 0x75A JUMP JUMPDEST PUSH1 0x40 MLOAD PUSH2 0x2E3 SWAP2 SWAP1 PUSH2 0x1E16 JUMP JUMPDEST PUSH1 0x40 MLOAD DUP1 SWAP2 SUB SWAP1 RETURN JUMPDEST PUSH2 0x306 PUSH1 0x4 DUP1 CALLDATASIZE SUB DUP2 ADD SWAP1 PUSH2 0x301 SWAP2 SWAP1 PUSH2 0x1F59 JUMP JUMPDEST PUSH2 0x77C JUMP JUMPDEST PUSH1 0x40 MLOAD PUSH2 0x313 SWAP2 SWAP1 PUSH2 0x1E3E JUMP JUMPDEST PUSH1 0x40 MLOAD DUP1 SWAP2 SUB SWAP1 RETURN JUMPDEST PUSH2 0x336 PUSH1 0x4 DUP1 CALLDATASIZE SUB DUP2 ADD SWAP1 PUSH2 0x331 SWAP2 SWAP1 PUSH2 0x1F06 JUMP JUMPDEST PUSH2 0x7FE JUMP JUMPDEST STOP JUMPDEST PUSH2 0x352 PUSH1 0x4 DUP1 CALLDATASIZE SUB DUP2 ADD SWAP1 PUSH2 0x34D SWAP2 SWAP1 PUSH2 0x1FD7 JUMP JUMPDEST PUSH2 0x882 JUMP JUMPDEST STOP JUMPDEST PUSH2 0x36E PUSH1 0x4 DUP1 CALLDATASIZE SUB DUP2 ADD SWAP1 PUSH2 0x369 SWAP2 SWAP1 PUSH2 0x1EDB JUMP JUMPDEST PUSH2 0x9DB JUMP JUMPDEST PUSH1 0x40 MLOAD PUSH2 0x37C SWAP3 SWAP2 SWAP1 PUSH2 0x207B JUMP JUMPDEST PUSH1 0x40 MLOAD DUP1 SWAP2 SUB SWAP1 RETURN JUMPDEST PUSH1 0x60 PUSH1 0x3 DUP1 SLOAD PUSH2 0x394 SWAP1 PUSH2 0x20CF JUMP JUMPDEST DUP1 PUSH1 0x1F ADD PUSH1 0x20 DUP1 SWAP2 DIV MUL PUSH1 0x20 ADD PUSH1 0x40 MLOAD SWAP1 DUP2 ADD PUSH1 0x40 MSTORE DUP1 SWAP3 SWAP2 SWAP1 DUP2 DUP2 MSTORE PUSH1 0x20 ADD DUP3 DUP1 SLOAD PUSH2 0x3C0 SWAP1 PUSH2 0x20CF JUMP JUMPDEST DUP1 ISZERO PUSH2 0x40B JUMPI DUP1 PUSH1 0x1F LT PUSH2 0x3E2 JUMPI PUSH2 0x100 DUP1 DUP4 SLOAD DIV MUL DUP4 MSTORE SWAP2 PUSH1 0x20 ADD SWAP2 PUSH2 0x40B JUMP JUMPDEST DUP3 ADD SWAP2 SWAP1 PUSH0 MSTORE PUSH1 0x20 PUSH0 KECCAK256 SWAP1 JUMPDEST DUP2 SLOAD DUP2 MSTORE SWAP1 PUSH1 0x1 ADD SWAP1 PUSH1 0x20 ADD DUP1 DUP4 GT PUSH2 0x3EE JUMPI DUP3 SWAP1 SUB PUSH1 0x1F AND DUP3 ADD SWAP2 JUMPDEST POP POP POP POP POP SWAP1 POP SWAP1 JUMP JUMPDEST PUSH0 DUP1 PUSH2 0x41F PUSH2 0x9FD JUMP JUMPDEST SWAP1 POP PUSH2 0x42C DUP2 DUP6 DUP6 PUSH2 0xA04 JUMP JUMPDEST PUSH1 0x1 SWAP2 POP POP SWAP3 SWAP2 POP POP JUMP JUMPDEST PUSH0 PUSH1 0x2 SLOAD SWAP1 POP SWAP1 JUMP JUMPDEST PUSH0 DUP1 PUSH2 0x44A PUSH2 0x9FD JUMP JUMPDEST SWAP1 POP PUSH2 0x457 DUP6 DUP3 DUP6 PUSH2 0xA16 JUMP JUMPDEST PUSH2 0x462 DUP6 DUP6 DUP6 PUSH2 0xAA8 JUMP JUMPDEST PUSH1 0x1 SWAP2 POP POP SWAP4 SWAP3 POP POP POP JUMP JUMPDEST PUSH0 PUSH1 0x12 SWAP1 POP SWAP1 JUMP JUMPDEST PUSH0 DUP1 PUSH2 0x481 TIMESTAMP PUSH2 0x9DB JUMP JUMPDEST SWAP2 POP SWAP2 POP PUSH0 PUSH2 0x492 DUP4 PUSH1 0xFF AND PUSH2 0xB98 JUMP JUMPDEST SWAP1 POP PUSH0 PUSH2 0x4A1 DUP4 PUSH1 0xFF AND PUSH2 0xB98 JUMP JUMPDEST SWAP1 POP PUSH0 PUSH2 0x4F4 DUP4 PUSH1 0x6 PUSH0 CALLER PUSH20 0xFFFFFFFFFFFFFFFFFFFFFFFFFFFFFFFFFFFFFFFF AND PUSH20 0xFFFFFFFFFFFFFFFFFFFFFFFFFFFFFFFFFFFFFFFF AND DUP2 MSTORE PUSH1 0x20 ADD SWAP1 DUP2 MSTORE PUSH1 0x20 ADD PUSH0 KECCAK256 SLOAD PUSH2 0xBAA SWAP1 SWAP2 SWAP1 PUSH4 0xFFFFFFFF AND JUMP JUMPDEST SWAP1 POP PUSH0 PUSH2 0x547 DUP4 PUSH1 0x7 PUSH0 CALLER PUSH20 0xFFFFFFFFFFFFFFFFFFFFFFFFFFFFFFFFFFFFFFFF AND PUSH20 0xFFFFFFFFFFFFFFFFFFFFFFFFFFFFFFFFFFFFFFFF AND DUP2 MSTORE PUSH1 0x20 ADD SWAP1 DUP2 MSTORE PUSH1 0x20 ADD PUSH0 KECCAK256 SLOAD PUSH2 0xBAA SWAP1 SWAP2 SWAP1 PUSH4 0xFFFFFFFF AND JUMP JUMPDEST SWAP1 POP PUSH2 0x552 DUP3 PUSH2 0xBBD JUMP JUMPDEST PUSH2 0x55B DUP2 PUSH2 0xBBD JUMP JUMPDEST PUSH2 0x56E CALLER PUSH9 0x56BC75E2D63100000 PUSH2 0xC6A JUMP JUMPDEST POP POP POP POP POP POP JUMP JUMPDEST PUSH0 PUSH2 0x580 TIMESTAMP PUSH2 0xCE9 JUMP JUMPDEST SWAP1 POP PUSH0 PUSH2 0x590 DUP3 PUSH2 0xFFFF AND PUSH2 0xDF7 JUMP JUMPDEST SWAP1 POP PUSH0 PUSH2 0x5FE PUSH2 0x5EF PUSH2 0x5A3 PUSH1 0x41 PUSH2 0xDF7 JUMP JUMPDEST PUSH1 0x8 PUSH0 CALLER PUSH20 0xFFFFFFFFFFFFFFFFFFFFFFFFFFFFFFFFFFFFFFFF AND PUSH20 0xFFFFFFFFFFFFFFFFFFFFFFFFFFFFFFFFFFFFFFFF AND DUP2 MSTORE PUSH1 0x20 ADD SWAP1 DUP2 MSTORE PUSH1 0x20 ADD PUSH0 KECCAK256 SLOAD PUSH2 0xE0A SWAP1 SWAP2 SWAP1 PUSH4 0xFFFFFFFF AND JUMP JUMPDEST DUP4 PUSH2 0xE1D SWAP1 SWAP2 SWAP1 PUSH4 0xFFFFFFFF AND JUMP JUMPDEST SWAP1 POP PUSH2 0x609 DUP2 PUSH2 0xBBD JUMP JUMPDEST PUSH2 0x61B CALLER PUSH8 0x8AC7230489E80000 PUSH2 0xC6A JUMP JUMPDEST POP POP POP JUMP JUMPDEST PUSH0 PUSH2 0x62A DUP3 PUSH2 0xE30 JUMP JUMPDEST PUSH1 0x40 ADD MLOAD SWAP1 POP SWAP2 SWAP1 POP JUMP JUMPDEST PUSH0 DUP1 PUSH0 DUP4 PUSH20 0xFFFFFFFFFFFFFFFFFFFFFFFFFFFFFFFFFFFFFFFF AND PUSH20 0xFFFFFFFFFFFFFFFFFFFFFFFFFFFFFFFFFFFFFFFF AND DUP2 MSTORE PUSH1 0x20 ADD SWAP1 DUP2 MSTORE PUSH1 0x20 ADD PUSH0 KECCAK256 SLOAD SWAP1 POP SWAP2 SWAP1 POP JUMP JUMPDEST PUSH2 0x682 PUSH2 0x1236 JUMP JUMPDEST PUSH2 0x68B PUSH0 PUSH2 0x12BD JUMP JUMPDEST JUMP JUMPDEST PUSH0 PUSH1 0x5 PUSH0 SWAP1 SLOAD SWAP1 PUSH2 0x100 EXP SWAP1 DIV PUSH20 0xFFFFFFFFFFFFFFFFFFFFFFFFFFFFFFFFFFFFFFFF AND SWAP1 POP SWAP1 JUMP JUMPDEST PUSH1 0x60 PUSH1 0x4 DUP1 SLOAD PUSH2 0x6C4 SWAP1 PUSH2 0x20CF JUMP JUMPDEST DUP1 PUSH1 0x1F ADD PUSH1 0x20 DUP1 SWAP2 DIV MUL PUSH1 0x20 ADD PUSH1 0x40 MLOAD SWAP1 DUP2 ADD PUSH1 0x40 MSTORE DUP1 SWAP3 SWAP2 SWAP1 DUP2 DUP2 MSTORE PUSH1 0x20 ADD DUP3 DUP1 SLOAD PUSH2 0x6F0 SWAP1 PUSH2 0x20CF JUMP JUMPDEST DUP1 ISZERO PUSH2 0x73B JUMPI DUP1 PUSH1 0x1F LT PUSH2 0x712 JUMPI PUSH2 0x100 DUP1 DUP4 SLOAD DIV MUL DUP4 MSTORE SWAP2 PUSH1 0x20 ADD SWAP2 PUSH2 0x73B JUMP JUMPDEST DUP3 ADD SWAP2 SWAP1 PUSH0 MSTORE PUSH1 0x20 PUSH0 KECCAK256 SWAP1 JUMPDEST DUP2 SLOAD DUP2 MSTORE SWAP1 PUSH1 0x1 ADD SWAP1 PUSH1 0x20 ADD DUP1 DUP4 GT PUSH2 0x71E JUMPI DUP3 SWAP1 SUB PUSH1 0x1F AND DUP3 ADD SWAP2 JUMPDEST POP POP POP POP POP SWAP1 POP SWAP1 JUMP JUMPDEST PUSH0 PUSH2 0x74F DUP3 PUSH2 0xE30 JUMP JUMPDEST PUSH1 0x20 ADD MLOAD SWAP1 POP SWAP2 SWAP1 POP JUMP JUMPDEST PUSH0 DUP1 PUSH2 0x764 PUSH2 0x9FD JUMP JUMPDEST SWAP1 POP PUSH2 0x771 DUP2 DUP6 DUP6 PUSH2 0xAA8 JUMP JUMPDEST PUSH1 0x1 SWAP2 POP POP SWAP3 SWAP2 POP POP JUMP JUMPDEST PUSH0 PUSH1 0x1 PUSH0 DUP5 PUSH20 0xFFFFFFFFFFFFFFFFFFFFFFFFFFFFFFFFFFFFFFFF AND PUSH20 0xFFFFFFFFFFFFFFFFFFFFFFFFFFFFFFFFFFFFFFFF AND DUP2 MSTORE PUSH1 0x20 ADD SWAP1 DUP2 MSTORE PUSH1 0x20 ADD PUSH0 KECCAK256 PUSH0 DUP4 PUSH20 0xFFFFFFFFFFFFFFFFFFFFFFFFFFFFFFFFFFFFFFFF AND PUSH20 0xFFFFFFFFFFFFFFFFFFFFFFFFFFFFFFFFFFFFFFFF AND DUP2 MSTORE PUSH1 0x20 ADD SWAP1 DUP2 MSTORE PUSH1 0x20 ADD PUSH0 KECCAK256 SLOAD SWAP1 POP SWAP3 SWAP2 POP POP JUMP JUMPDEST PUSH2 0x806 PUSH2 0x1236 JUMP JUMPDEST PUSH0 PUSH20 0xFFFFFFFFFFFFFFFFFFFFFFFFFFFFFFFFFFFFFFFF AND DUP2 PUSH20 0xFFFFFFFFFFFFFFFFFFFFFFFFFFFFFFFFFFFFFFFF AND SUB PUSH2 0x876 JUMPI PUSH0 PUSH1 0x40 MLOAD PUSH32 0x1E4FBDF700000000000000000000000000000000000000000000000000000000 DUP2 MSTORE PUSH1 0x4 ADD PUSH2 0x86D SWAP2 SWAP1 PUSH2 0x1F40 JUMP JUMPDEST PUSH1 0x40 MLOAD DUP1 SWAP2 SUB SWAP1 REVERT JUMPDEST PUSH2 0x87F DUP2 PUSH2 0x12BD JUMP JUMPDEST POP JUMP JUMPDEST PUSH0 PUSH2 0x895 DUP5 PUSH2 0x890 SWAP1 PUSH2 0x2288 JUMP JUMPDEST PUSH2 0x1380 JUMP JUMPDEST SWAP1 POP PUSH0 PUSH2 0x8AA DUP5 PUSH2 0x8A5 SWAP1 PUSH2 0x2288 JUMP JUMPDEST PUSH2 0x1380 JUMP JUMPDEST SWAP1 POP PUSH0 PUSH2 0x8BF DUP5 PUSH2 0x8BA SWAP1 PUSH2 0x22EF JUMP JUMPDEST PUSH2 0x1394 JUMP JUMPDEST SWAP1 POP PUSH2 0x907 PUSH1 0x6 PUSH0 CALLER PUSH20 0xFFFFFFFFFFFFFFFFFFFFFFFFFFFFFFFFFFFFFFFF AND PUSH20 0xFFFFFFFFFFFFFFFFFFFFFFFFFFFFFFFFFFFFFFFF AND DUP2 MSTORE PUSH1 0x20 ADD SWAP1 DUP2 MSTORE PUSH1 0x20 ADD PUSH0 KECCAK256 SLOAD PUSH2 0x13A8 JUMP JUMPDEST ISZERO PUSH2 0x9D3 JUMPI DUP3 PUSH1 0x6 PUSH0 CALLER PUSH20 0xFFFFFFFFFFFFFFFFFFFFFFFFFFFFFFFFFFFFFFFF AND PUSH20 0xFFFFFFFFFFFFFFFFFFFFFFFFFFFFFFFFFFFFFFFF AND DUP2 MSTORE PUSH1 0x20 ADD SWAP1 DUP2 MSTORE PUSH1 0x20 ADD PUSH0 KECCAK256 DUP2 SWAP1 SSTORE POP DUP2 PUSH1 0x7 PUSH0 CALLER PUSH20 0xFFFFFFFFFFFFFFFFFFFFFFFFFFFFFFFFFFFFFFFF AND PUSH20 0xFFFFFFFFFFFFFFFFFFFFFFFFFFFFFFFFFFFFFFFF AND DUP2 MSTORE PUSH1 0x20 ADD SWAP1 DUP2 MSTORE PUSH1 0x20 ADD PUSH0 KECCAK256 DUP2 SWAP1 SSTORE POP DUP1 PUSH1 0x8 PUSH0 CALLER PUSH20 0xFFFFFFFFFFFFFFFFFFFFFFFFFFFFFFFFFFFFFFFF AND PUSH20 0xFFFFFFFFFFFFFFFFFFFFFFFFFFFFFFFFFFFFFFFF AND DUP2 MSTORE PUSH1 0x20 ADD SWAP1 DUP2 MSTORE PUSH1 0x20 ADD PUSH0 KECCAK256 DUP2 SWAP1 SSTORE POP JUMPDEST POP POP POP POP POP POP JUMP JUMPDEST PUSH0 DUP1 PUSH0 PUSH2 0x9E7 DUP5 PUSH2 0xE30 JUMP JUMPDEST SWAP1 POP DUP1 PUSH1 0x40 ADD MLOAD DUP2 PUSH1 0x20 ADD MLOAD SWAP3 POP SWAP3 POP POP SWAP2 POP SWAP2 JUMP JUMPDEST PUSH0 CALLER SWAP1 POP SWAP1 JUMP JUMPDEST PUSH2 0xA11 DUP4 DUP4 DUP4 PUSH1 0x1 PUSH2 0x13B4 JUMP JUMPDEST POP POP POP JUMP JUMPDEST PUSH0 PUSH2 0xA21 DUP5 DUP5 PUSH2 0x77C JUMP JUMPDEST SWAP1 POP PUSH32 0xFFFFFFFFFFFFFFFFFFFFFFFFFFFFFFFFFFFFFFFFFFFFFFFFFFFFFFFFFFFFFFFF DUP2 EQ PUSH2 0xAA2 JUMPI DUP2 DUP2 LT ISZERO PUSH2 0xA93 JUMPI DUP3 DUP2 DUP4 PUSH1 0x40 MLOAD PUSH32 0xFB8F41B200000000000000000000000000000000000000000000000000000000 DUP2 MSTORE PUSH1 0x4 ADD PUSH2 0xA8A SWAP4 SWAP3 SWAP2 SWAP1 PUSH2 0x2301 JUMP JUMPDEST PUSH1 0x40 MLOAD DUP1 SWAP2 SUB SWAP1 REVERT JUMPDEST PUSH2 0xAA1 DUP5 DUP5 DUP5 DUP5 SUB PUSH0 PUSH2 0x13B4 JUMP JUMPDEST JUMPDEST POP POP POP POP JUMP JUMPDEST PUSH0 PUSH20 0xFFFFFFFFFFFFFFFFFFFFFFFFFFFFFFFFFFFFFFFF AND DUP4 PUSH20 0xFFFFFFFFFFFFFFFFFFFFFFFFFFFFFFFFFFFFFFFF AND SUB PUSH2 0xB18 JUMPI PUSH0 PUSH1 0x40 MLOAD PUSH32 0x96C6FD1E00000000000000000000000000000000000000000000000000000000 DUP2 MSTORE PUSH1 0x4 ADD PUSH2 0xB0F SWAP2 SWAP1 PUSH2 0x1F40 JUMP JUMPDEST PUSH1 0x40 MLOAD DUP1 SWAP2 SUB SWAP1 REVERT JUMPDEST PUSH0 PUSH20 0xFFFFFFFFFFFFFFFFFFFFFFFFFFFFFFFFFFFFFFFF AND DUP3 PUSH20 0xFFFFFFFFFFFFFFFFFFFFFFFFFFFFFFFFFFFFFFFF AND SUB PUSH2 0xB88 JUMPI PUSH0 PUSH1 0x40 MLOAD PUSH32 0xEC442F0500000000000000000000000000000000000000000000000000000000 DUP2 MSTORE PUSH1 0x4 ADD PUSH2 0xB7F SWAP2 SWAP1 PUSH2 0x1F40 JUMP JUMPDEST PUSH1 0x40 MLOAD DUP1 SWAP2 SUB SWAP1 REVERT JUMPDEST PUSH2 0xB93 DUP4 DUP4 DUP4 PUSH2 0x1583 JUMP JUMPDEST POP POP POP JUMP JUMPDEST PUSH0 PUSH2 0xBA3 DUP3 PUSH0 PUSH2 0x179C JUMP JUMPDEST SWAP1 POP SWAP2 SWAP1 POP JUMP JUMPDEST PUSH0 PUSH2 0xBB5 DUP4 DUP4 PUSH2 0x1839 JUMP JUMPDEST SWAP1 POP SWAP3 SWAP2 POP POP JUMP JUMPDEST PUSH2 0xBC6 DUP2 PUSH2 0x18AB JUMP JUMPDEST PUSH2 0xBD6 JUMPI PUSH2 0xBD3 PUSH0 PUSH2 0x18B7 JUMP JUMPDEST SWAP1 POP JUMPDEST PUSH0 DUP2 SWAP1 POP PUSH0 PUSH2 0xBE4 DUP3 PUSH2 0x18C9 JUMP JUMPDEST SWAP1 POP PUSH1 0x80 PUSH20 0xFFFFFFFFFFFFFFFFFFFFFFFFFFFFFFFFFFFFFFFF AND PUSH4 0x7D23F1DB PUSH0 DUP4 PUSH1 0x40 MLOAD DUP4 PUSH4 0xFFFFFFFF AND PUSH1 0xE0 SHL DUP2 MSTORE PUSH1 0x4 ADD PUSH2 0xC22 SWAP3 SWAP2 SWAP1 PUSH2 0x2388 JUMP JUMPDEST PUSH0 PUSH1 0x40 MLOAD DUP1 DUP4 SUB DUP2 DUP7 GAS STATICCALL ISZERO DUP1 ISZERO PUSH2 0xC3C JUMPI RETURNDATASIZE PUSH0 DUP1 RETURNDATACOPY RETURNDATASIZE PUSH0 REVERT JUMPDEST POP POP POP POP PUSH1 0x40 MLOAD RETURNDATASIZE PUSH0 DUP3 RETURNDATACOPY RETURNDATASIZE PUSH1 0x1F NOT PUSH1 0x1F DUP3 ADD AND DUP3 ADD DUP1 PUSH1 0x40 MSTORE POP DUP2 ADD SWAP1 PUSH2 0xC64 SWAP2 SWAP1 PUSH2 0x2424 JUMP JUMPDEST POP POP POP POP JUMP JUMPDEST PUSH0 PUSH20 0xFFFFFFFFFFFFFFFFFFFFFFFFFFFFFFFFFFFFFFFF AND DUP3 PUSH20 0xFFFFFFFFFFFFFFFFFFFFFFFFFFFFFFFFFFFFFFFF AND SUB PUSH2 0xCDA JUMPI PUSH0 PUSH1 0x40 MLOAD PUSH32 0xEC442F0500000000000000000000000000000000000000000000000000000000 DUP2 MSTORE PUSH1 0x4 ADD PUSH2 0xCD1 SWAP2 SWAP1 PUSH2 0x1F40 JUMP JUMPDEST PUSH1 0x40 MLOAD DUP1 SWAP2 SUB SWAP1 REVERT JUMPDEST PUSH2 0xCE5 PUSH0 DUP4 DUP4 PUSH2 0x1583 JUMP JUMPDEST POP POP JUMP JUMPDEST PUSH0 DUP1 PUSH0 SWAP1 POP PUSH0 DUP1 PUSH0 PUSH4 0x1E13380 SWAP1 POP PUSH0 PUSH4 0x1E28500 SWAP1 POP DUP2 DUP8 PUSH2 0xD0C SWAP2 SWAP1 PUSH2 0x24C5 JUMP JUMPDEST PUSH2 0x7B2 PUSH2 0xD19 SWAP2 SWAP1 PUSH2 0x24F5 JUMP JUMPDEST SWAP4 POP PUSH2 0xD26 PUSH2 0x7B2 PUSH2 0x1926 JUMP JUMPDEST PUSH2 0xD33 DUP6 PUSH2 0xFFFF AND PUSH2 0x1926 JUMP JUMPDEST PUSH2 0xD3D SWAP2 SWAP1 PUSH2 0x2528 JUMP JUMPDEST SWAP3 POP DUP3 DUP2 PUSH2 0xD4B SWAP2 SWAP1 PUSH2 0x255B JUMP JUMPDEST DUP6 PUSH2 0xD56 SWAP2 SWAP1 PUSH2 0x24F5 JUMP JUMPDEST SWAP5 POP DUP3 PUSH2 0x7B2 DUP6 PUSH2 0xD67 SWAP2 SWAP1 PUSH2 0x25A9 JUMP JUMPDEST PUSH2 0xFFFF AND PUSH2 0xD75 SWAP2 SWAP1 PUSH2 0x2528 JUMP JUMPDEST DUP3 PUSH2 0xD80 SWAP2 SWAP1 PUSH2 0x255B JUMP JUMPDEST DUP6 PUSH2 0xD8B SWAP2 SWAP1 PUSH2 0x24F5 JUMP JUMPDEST SWAP5 POP JUMPDEST DUP7 DUP6 GT ISZERO PUSH2 0xDEA JUMPI PUSH2 0xDAF PUSH1 0x1 DUP6 PUSH2 0xDA6 SWAP2 SWAP1 PUSH2 0x25A9 JUMP JUMPDEST PUSH2 0xFFFF AND PUSH2 0x1979 JUMP JUMPDEST ISZERO PUSH2 0xDC7 JUMPI DUP1 DUP6 PUSH2 0xDC0 SWAP2 SWAP1 PUSH2 0x2528 JUMP JUMPDEST SWAP5 POP PUSH2 0xDD6 JUMP JUMPDEST DUP2 DUP6 PUSH2 0xDD3 SWAP2 SWAP1 PUSH2 0x2528 JUMP JUMPDEST SWAP5 POP JUMPDEST PUSH1 0x1 DUP5 PUSH2 0xDE3 SWAP2 SWAP1 PUSH2 0x25A9 JUMP JUMPDEST SWAP4 POP PUSH2 0xD8E JUMP JUMPDEST DUP4 SWAP6 POP POP POP POP POP POP SWAP2 SWAP1 POP JUMP JUMPDEST PUSH0 PUSH2 0xE03 DUP3 PUSH1 0x1 PUSH2 0x179C JUMP JUMPDEST SWAP1 POP SWAP2 SWAP1 POP JUMP JUMPDEST PUSH0 PUSH2 0xE15 DUP4 DUP4 PUSH2 0x19D7 JUMP JUMPDEST SWAP1 POP SWAP3 SWAP2 POP POP JUMP JUMPDEST PUSH0 PUSH2 0xE28 DUP4 DUP4 PUSH2 0x1A49 JUMP JUMPDEST SWAP1 POP SWAP3 SWAP2 POP POP JUMP JUMPDEST PUSH2 0xE38 PUSH2 0x1C2B JUMP JUMPDEST PUSH0 DUP1 DUP1 PUSH0 PUSH4 0x1E13380 SWAP1 POP PUSH0 PUSH4 0x1E28500 SWAP1 POP PUSH0 PUSH3 0x15180 SWAP1 POP PUSH2 0xE5B DUP9 PUSH2 0xCE9 JUMP JUMPDEST DUP8 PUSH0 ADD SWAP1 PUSH2 0xFFFF AND SWAP1 DUP2 PUSH2 0xFFFF AND DUP2 MSTORE POP POP PUSH2 0xE78 PUSH2 0x7B2 PUSH2 0x1926 JUMP JUMPDEST PUSH2 0xE88 DUP9 PUSH0 ADD MLOAD PUSH2 0xFFFF AND PUSH2 0x1926 JUMP JUMPDEST PUSH2 0xE92 SWAP2 SWAP1 PUSH2 0x2528 JUMP JUMPDEST SWAP5 POP DUP5 DUP3 PUSH2 0xEA0 SWAP2 SWAP1 PUSH2 0x255B JUMP JUMPDEST DUP7 PUSH2 0xEAB SWAP2 SWAP1 PUSH2 0x24F5 JUMP JUMPDEST SWAP6 POP DUP5 PUSH2 0x7B2 DUP9 PUSH0 ADD MLOAD PUSH2 0xEBF SWAP2 SWAP1 PUSH2 0x25A9 JUMP JUMPDEST PUSH2 0xFFFF AND PUSH2 0xECD SWAP2 SWAP1 PUSH2 0x2528 JUMP JUMPDEST DUP4 PUSH2 0xED8 SWAP2 SWAP1 PUSH2 0x255B JUMP JUMPDEST DUP7 PUSH2 0xEE3 SWAP2 SWAP1 PUSH2 0x24F5 JUMP JUMPDEST SWAP6 POP PUSH2 0xEED PUSH2 0x1C53 JUMP JUMPDEST PUSH1 0x1F DUP2 PUSH0 PUSH1 0xC DUP2 LT PUSH2 0xF02 JUMPI PUSH2 0xF01 PUSH2 0x25DE JUMP JUMPDEST JUMPDEST PUSH1 0x20 MUL ADD SWAP1 PUSH1 0xFF AND SWAP1 DUP2 PUSH1 0xFF AND DUP2 MSTORE POP POP PUSH2 0xF23 DUP9 PUSH0 ADD MLOAD PUSH2 0xFFFF AND PUSH2 0x1979 JUMP JUMPDEST ISZERO PUSH2 0xF54 JUMPI PUSH1 0x1D DUP2 PUSH1 0x1 PUSH1 0xC DUP2 LT PUSH2 0xF3E JUMPI PUSH2 0xF3D PUSH2 0x25DE JUMP JUMPDEST JUMPDEST PUSH1 0x20 MUL ADD SWAP1 PUSH1 0xFF AND SWAP1 DUP2 PUSH1 0xFF AND DUP2 MSTORE POP POP PUSH2 0xF7C JUMP JUMPDEST PUSH1 0x1C DUP2 PUSH1 0x1 PUSH1 0xC DUP2 LT PUSH2 0xF6A JUMPI PUSH2 0xF69 PUSH2 0x25DE JUMP JUMPDEST JUMPDEST PUSH1 0x20 MUL ADD SWAP1 PUSH1 0xFF AND SWAP1 DUP2 PUSH1 0xFF AND DUP2 MSTORE POP POP JUMPDEST PUSH1 0x1F DUP2 PUSH1 0x2 PUSH1 0xC DUP2 LT PUSH2 0xF92 JUMPI PUSH2 0xF91 PUSH2 0x25DE JUMP JUMPDEST JUMPDEST PUSH1 0x20 MUL ADD SWAP1 PUSH1 0xFF AND SWAP1 DUP2 PUSH1 0xFF AND DUP2 MSTORE POP POP PUSH1 0x1E DUP2 PUSH1 0x3 PUSH1 0xC DUP2 LT PUSH2 0xFB9 JUMPI PUSH2 0xFB8 PUSH2 0x25DE JUMP JUMPDEST JUMPDEST PUSH1 0x20 MUL ADD SWAP1 PUSH1 0xFF AND SWAP1 DUP2 PUSH1 0xFF AND DUP2 MSTORE POP POP PUSH1 0x1F DUP2 PUSH1 0x4 PUSH1 0xC DUP2 LT PUSH2 0xFE0 JUMPI PUSH2 0xFDF PUSH2 0x25DE JUMP JUMPDEST JUMPDEST PUSH1 0x20 MUL ADD SWAP1 PUSH1 0xFF AND SWAP1 DUP2 PUSH1 0xFF AND DUP2 MSTORE POP POP PUSH1 0x1E DUP2 PUSH1 0x5 PUSH1 0xC DUP2 LT PUSH2 0x1007 JUMPI PUSH2 0x1006 PUSH2 0x25DE JUMP JUMPDEST JUMPDEST PUSH1 0x20 MUL ADD SWAP1 PUSH1 0xFF AND SWAP1 DUP2 PUSH1 0xFF AND DUP2 MSTORE POP POP PUSH1 0x1F DUP2 PUSH1 0x6 PUSH1 0xC DUP2 LT PUSH2 0x102E JUMPI PUSH2 0x102D PUSH2 0x25DE JUMP JUMPDEST JUMPDEST PUSH1 0x20 MUL ADD SWAP1 PUSH1 0xFF AND SWAP1 DUP2 PUSH1 0xFF AND DUP2 MSTORE POP POP PUSH1 0x1F DUP2 PUSH1 0x7 PUSH1 0xC DUP2 LT PUSH2 0x1055 JUMPI PUSH2 0x1054 PUSH2 0x25DE JUMP JUMPDEST JUMPDEST PUSH1 0x20 MUL ADD SWAP1 PUSH1 0xFF AND SWAP1 DUP2 PUSH1 0xFF AND DUP2 MSTORE POP POP PUSH1 0x1E DUP2 PUSH1 0x8 PUSH1 0xC DUP2 LT PUSH2 0x107C JUMPI PUSH2 0x107B PUSH2 0x25DE JUMP JUMPDEST JUMPDEST PUSH1 0x20 MUL ADD SWAP1 PUSH1 0xFF AND SWAP1 DUP2 PUSH1 0xFF AND DUP2 MSTORE POP POP PUSH1 0x1F DUP2 PUSH1 0x9 PUSH1 0xC DUP2 LT PUSH2 0x10A3 JUMPI PUSH2 0x10A2 PUSH2 0x25DE JUMP JUMPDEST JUMPDEST PUSH1 0x20 MUL ADD SWAP1 PUSH1 0xFF AND SWAP1 DUP2 PUSH1 0xFF AND DUP2 MSTORE POP POP PUSH1 0x1E DUP2 PUSH1 0xA PUSH1 0xC DUP2 LT PUSH2 0x10CA JUMPI PUSH2 0x10C9 PUSH2 0x25DE JUMP JUMPDEST JUMPDEST PUSH1 0x20 MUL ADD SWAP1 PUSH1 0xFF AND SWAP1 DUP2 PUSH1 0xFF AND DUP2 MSTORE POP POP PUSH1 0x1F DUP2 PUSH1 0xB PUSH1 0xC DUP2 LT PUSH2 0x10F1 JUMPI PUSH2 0x10F0 PUSH2 0x25DE JUMP JUMPDEST JUMPDEST PUSH1 0x20 MUL ADD SWAP1 PUSH1 0xFF AND SWAP1 DUP2 PUSH1 0xFF AND DUP2 MSTORE POP POP PUSH1 0x1 SWAP5 POP JUMPDEST PUSH1 0xC DUP6 PUSH1 0xFF AND GT PUSH2 0x11A3 JUMPI DUP5 PUSH1 0xFF AND PUSH1 0xC DUP6 PUSH2 0x1123 SWAP2 SWAP1 PUSH2 0x24C5 JUMP JUMPDEST PUSH2 0x112D SWAP2 SWAP1 PUSH2 0x255B JUMP JUMPDEST SWAP6 POP DUP9 DUP7 DUP9 PUSH2 0x113C SWAP2 SWAP1 PUSH2 0x24F5 JUMP JUMPDEST GT ISZERO PUSH2 0x1190 JUMPI DUP5 DUP9 PUSH1 0x20 ADD SWAP1 PUSH1 0xFF AND SWAP1 DUP2 PUSH1 0xFF AND DUP2 MSTORE POP POP PUSH1 0x1 DUP6 PUSH2 0x1161 SWAP2 SWAP1 PUSH2 0x260B JUMP JUMPDEST PUSH1 0xFF AND PUSH1 0xC DUP6 PUSH2 0x1171 SWAP2 SWAP1 PUSH2 0x24C5 JUMP JUMPDEST PUSH2 0x117B SWAP2 SWAP1 PUSH2 0x255B JUMP JUMPDEST SWAP6 POP DUP6 DUP8 PUSH2 0x1189 SWAP2 SWAP1 PUSH2 0x24F5 JUMP JUMPDEST SWAP7 POP PUSH2 0x11A3 JUMP JUMPDEST DUP5 DUP1 PUSH2 0x119B SWAP1 PUSH2 0x263F JUMP JUMPDEST SWAP6 POP POP PUSH2 0x1107 JUMP JUMPDEST PUSH1 0x1 SWAP5 POP JUMPDEST DUP1 PUSH1 0x1 DUP10 PUSH1 0x20 ADD MLOAD PUSH2 0x11BA SWAP2 SWAP1 PUSH2 0x260B JUMP JUMPDEST PUSH1 0xFF AND PUSH1 0xC DUP2 LT PUSH2 0x11CE JUMPI PUSH2 0x11CD PUSH2 0x25DE JUMP JUMPDEST JUMPDEST PUSH1 0x20 MUL ADD MLOAD PUSH1 0xFF AND DUP6 PUSH1 0xFF AND GT PUSH2 0x122A JUMPI DUP9 DUP3 DUP9 PUSH2 0x11EC SWAP2 SWAP1 PUSH2 0x24F5 JUMP JUMPDEST GT ISZERO PUSH2 0x1209 JUMPI DUP5 DUP9 PUSH1 0x40 ADD SWAP1 PUSH1 0xFF AND SWAP1 DUP2 PUSH1 0xFF AND DUP2 MSTORE POP POP PUSH2 0x122A JUMP JUMPDEST DUP2 DUP8 PUSH2 0x1215 SWAP2 SWAP1 PUSH2 0x24F5 JUMP JUMPDEST SWAP7 POP DUP5 DUP1 PUSH2 0x1222 SWAP1 PUSH2 0x263F JUMP JUMPDEST SWAP6 POP POP PUSH2 0x11A8 JUMP JUMPDEST POP POP POP POP POP POP POP SWAP2 SWAP1 POP JUMP JUMPDEST PUSH2 0x123E PUSH2 0x9FD JUMP JUMPDEST PUSH20 0xFFFFFFFFFFFFFFFFFFFFFFFFFFFFFFFFFFFFFFFF AND PUSH2 0x125C PUSH2 0x68D JUMP JUMPDEST PUSH20 0xFFFFFFFFFFFFFFFFFFFFFFFFFFFFFFFFFFFFFFFF AND EQ PUSH2 0x12BB JUMPI PUSH2 0x127F PUSH2 0x9FD JUMP JUMPDEST PUSH1 0x40 MLOAD PUSH32 0x118CDAA700000000000000000000000000000000000000000000000000000000 DUP2 MSTORE PUSH1 0x4 ADD PUSH2 0x12B2 SWAP2 SWAP1 PUSH2 0x1F40 JUMP JUMPDEST PUSH1 0x40 MLOAD DUP1 SWAP2 SUB SWAP1 REVERT JUMPDEST JUMP JUMPDEST PUSH0 PUSH1 0x5 PUSH0 SWAP1 SLOAD SWAP1 PUSH2 0x100 EXP SWAP1 DIV PUSH20 0xFFFFFFFFFFFFFFFFFFFFFFFFFFFFFFFFFFFFFFFF AND SWAP1 POP DUP2 PUSH1 0x5 PUSH0 PUSH2 0x100 EXP DUP2 SLOAD DUP2 PUSH20 0xFFFFFFFFFFFFFFFFFFFFFFFFFFFFFFFFFFFFFFFF MUL NOT AND SWAP1 DUP4 PUSH20 0xFFFFFFFFFFFFFFFFFFFFFFFFFFFFFFFFFFFFFFFF AND MUL OR SWAP1 SSTORE POP DUP2 PUSH20 0xFFFFFFFFFFFFFFFFFFFFFFFFFFFFFFFFFFFFFFFF AND DUP2 PUSH20 0xFFFFFFFFFFFFFFFFFFFFFFFFFFFFFFFFFFFFFFFF AND PUSH32 0x8BE0079C531659141344CD1FD0A4F28419497F9722A3DAAFE3B4186F6B6457E0 PUSH1 0x40 MLOAD PUSH1 0x40 MLOAD DUP1 SWAP2 SUB SWAP1 LOG3 POP POP JUMP JUMPDEST PUSH0 PUSH2 0x138D DUP3 PUSH0 ADD MLOAD PUSH2 0x1ABC JUMP JUMPDEST SWAP1 POP SWAP2 SWAP1 POP JUMP JUMPDEST PUSH0 PUSH2 0x13A1 DUP3 PUSH0 ADD MLOAD PUSH2 0x1ACE JUMP JUMPDEST SWAP1 POP SWAP2 SWAP1 POP JUMP JUMPDEST PUSH0 DUP1 DUP3 EQ ISZERO SWAP1 POP SWAP2 SWAP1 POP JUMP JUMPDEST PUSH0 PUSH20 0xFFFFFFFFFFFFFFFFFFFFFFFFFFFFFFFFFFFFFFFF AND DUP5 PUSH20 0xFFFFFFFFFFFFFFFFFFFFFFFFFFFFFFFFFFFFFFFF AND SUB PUSH2 0x1424 JUMPI PUSH0 PUSH1 0x40 MLOAD PUSH32 0xE602DF0500000000000000000000000000000000000000000000000000000000 DUP2 MSTORE PUSH1 0x4 ADD PUSH2 0x141B SWAP2 SWAP1 PUSH2 0x1F40 JUMP JUMPDEST PUSH1 0x40 MLOAD DUP1 SWAP2 SUB SWAP1 REVERT JUMPDEST PUSH0 PUSH20 0xFFFFFFFFFFFFFFFFFFFFFFFFFFFFFFFFFFFFFFFF AND DUP4 PUSH20 0xFFFFFFFFFFFFFFFFFFFFFFFFFFFFFFFFFFFFFFFF AND SUB PUSH2 0x1494 JUMPI PUSH0 PUSH1 0x40 MLOAD PUSH32 0x94280D6200000000000000000000000000000000000000000000000000000000 DUP2 MSTORE PUSH1 0x4 ADD PUSH2 0x148B SWAP2 SWAP1 PUSH2 0x1F40 JUMP JUMPDEST PUSH1 0x40 MLOAD DUP1 SWAP2 SUB SWAP1 REVERT JUMPDEST DUP2 PUSH1 0x1 PUSH0 DUP7 PUSH20 0xFFFFFFFFFFFFFFFFFFFFFFFFFFFFFFFFFFFFFFFF AND PUSH20 0xFFFFFFFFFFFFFFFFFFFFFFFFFFFFFFFFFFFFFFFF AND DUP2 MSTORE PUSH1 0x20 ADD SWAP1 DUP2 MSTORE PUSH1 0x20 ADD PUSH0 KECCAK256 PUSH0 DUP6 PUSH20 0xFFFFFFFFFFFFFFFFFFFFFFFFFFFFFFFFFFFFFFFF AND PUSH20 0xFFFFFFFFFFFFFFFFFFFFFFFFFFFFFFFFFFFFFFFF AND DUP2 MSTORE PUSH1 0x20 ADD SWAP1 DUP2 MSTORE PUSH1 0x20 ADD PUSH0 KECCAK256 DUP2 SWAP1 SSTORE POP DUP1 ISZERO PUSH2 0x157D JUMPI DUP3 PUSH20 0xFFFFFFFFFFFFFFFFFFFFFFFFFFFFFFFFFFFFFFFF AND DUP5 PUSH20 0xFFFFFFFFFFFFFFFFFFFFFFFFFFFFFFFFFFFFFFFF AND PUSH32 0x8C5BE1E5EBEC7D5BD14F71427D1E84F3DD0314C0F7B2291E5B200AC8C7C3B925 DUP5 PUSH1 0x40 MLOAD PUSH2 0x1574 SWAP2 SWAP1 PUSH2 0x1E3E JUMP JUMPDEST PUSH1 0x40 MLOAD DUP1 SWAP2 SUB SWAP1 LOG3 JUMPDEST POP POP POP POP JUMP JUMPDEST PUSH0 PUSH20 0xFFFFFFFFFFFFFFFFFFFFFFFFFFFFFFFFFFFFFFFF AND DUP4 PUSH20 0xFFFFFFFFFFFFFFFFFFFFFFFFFFFFFFFFFFFFFFFF AND SUB PUSH2 0x15D3 JUMPI DUP1 PUSH1 0x2 PUSH0 DUP3 DUP3 SLOAD PUSH2 0x15C7 SWAP2 SWAP1 PUSH2 0x24F5 JUMP JUMPDEST SWAP3 POP POP DUP2 SWAP1 SSTORE POP PUSH2 0x16A1 JUMP JUMPDEST PUSH0 DUP1 PUSH0 DUP6 PUSH20 0xFFFFFFFFFFFFFFFFFFFFFFFFFFFFFFFFFFFFFFFF AND PUSH20 0xFFFFFFFFFFFFFFFFFFFFFFFFFFFFFFFFFFFFFFFF AND DUP2 MSTORE PUSH1 0x20 ADD SWAP1 DUP2 MSTORE PUSH1 0x20 ADD PUSH0 KECCAK256 SLOAD SWAP1 POP DUP2 DUP2 LT ISZERO PUSH2 0x165C JUMPI DUP4 DUP2 DUP4 PUSH1 0x40 MLOAD PUSH32 0xE450D38C00000000000000000000000000000000000000000000000000000000 DUP2 MSTORE PUSH1 0x4 ADD PUSH2 0x1653 SWAP4 SWAP3 SWAP2 SWAP1 PUSH2 0x2301 JUMP JUMPDEST PUSH1 0x40 MLOAD DUP1 SWAP2 SUB SWAP1 REVERT JUMPDEST DUP2 DUP2 SUB PUSH0 DUP1 DUP7 PUSH20 0xFFFFFFFFFFFFFFFFFFFFFFFFFFFFFFFFFFFFFFFF AND PUSH20 0xFFFFFFFFFFFFFFFFFFFFFFFFFFFFFFFFFFFFFFFF AND DUP2 MSTORE PUSH1 0x20 ADD SWAP1 DUP2 MSTORE PUSH1 0x20 ADD PUSH0 KECCAK256 DUP2 SWAP1 SSTORE POP POP JUMPDEST PUSH0 PUSH20 0xFFFFFFFFFFFFFFFFFFFFFFFFFFFFFFFFFFFFFFFF AND DUP3 PUSH20 0xFFFFFFFFFFFFFFFFFFFFFFFFFFFFFFFFFFFFFFFF AND SUB PUSH2 0x16E8 JUMPI DUP1 PUSH1 0x2 PUSH0 DUP3 DUP3 SLOAD SUB SWAP3 POP POP DUP2 SWAP1 SSTORE POP PUSH2 0x1732 JUMP JUMPDEST DUP1 PUSH0 DUP1 DUP5 PUSH20 0xFFFFFFFFFFFFFFFFFFFFFFFFFFFFFFFFFFFFFFFF AND PUSH20 0xFFFFFFFFFFFFFFFFFFFFFFFFFFFFFFFFFFFFFFFF AND DUP2 MSTORE PUSH1 0x20 ADD SWAP1 DUP2 MSTORE PUSH1 0x20 ADD PUSH0 KECCAK256 PUSH0 DUP3 DUP3 SLOAD ADD SWAP3 POP POP DUP2 SWAP1 SSTORE POP JUMPDEST DUP2 PUSH20 0xFFFFFFFFFFFFFFFFFFFFFFFFFFFFFFFFFFFFFFFF AND DUP4 PUSH20 0xFFFFFFFFFFFFFFFFFFFFFFFFFFFFFFFFFFFFFFFF AND PUSH32 0xDDF252AD1BE2C89B69C2B068FC378DAA952BA7F163C4A11628F55A4DF523B3EF DUP4 PUSH1 0x40 MLOAD PUSH2 0x178F SWAP2 SWAP1 PUSH2 0x1E3E JUMP JUMPDEST PUSH1 0x40 MLOAD DUP1 SWAP2 SUB SWAP1 LOG3 POP POP POP JUMP JUMPDEST PUSH0 PUSH1 0x60 PUSH1 0x80 PUSH20 0xFFFFFFFFFFFFFFFFFFFFFFFFFFFFFFFFFFFFFFFF AND PUSH4 0x19E1C5C4 PUSH2 0x17C5 DUP7 PUSH2 0x18C9 JUMP JUMPDEST DUP6 PUSH1 0x40 MLOAD DUP4 PUSH4 0xFFFFFFFF AND PUSH1 0xE0 SHL DUP2 MSTORE PUSH1 0x4 ADD PUSH2 0x17E3 SWAP3 SWAP2 SWAP1 PUSH2 0x2667 JUMP JUMPDEST PUSH0 PUSH1 0x40 MLOAD DUP1 DUP4 SUB DUP2 DUP7 GAS STATICCALL ISZERO DUP1 ISZERO PUSH2 0x17FD JUMPI RETURNDATASIZE PUSH0 DUP1 RETURNDATACOPY RETURNDATASIZE PUSH0 REVERT JUMPDEST POP POP POP POP PUSH1 0x40 MLOAD RETURNDATASIZE PUSH0 DUP3 RETURNDATACOPY RETURNDATASIZE PUSH1 0x1F NOT PUSH1 0x1F DUP3 ADD AND DUP3 ADD DUP1 PUSH1 0x40 MSTORE POP DUP2 ADD SWAP1 PUSH2 0x1825 SWAP2 SWAP1 PUSH2 0x2424 JUMP JUMPDEST SWAP1 POP PUSH2 0x1830 DUP2 PUSH2 0x1AE1 JUMP JUMPDEST SWAP2 POP POP SWAP3 SWAP2 POP POP JUMP JUMPDEST PUSH0 PUSH2 0x1843 DUP4 PUSH2 0x13A8 JUMP JUMPDEST PUSH2 0x1853 JUMPI PUSH2 0x1850 PUSH0 PUSH2 0xB98 JUMP JUMPDEST SWAP3 POP JUMPDEST PUSH2 0x185C DUP3 PUSH2 0x13A8 JUMP JUMPDEST PUSH2 0x186C JUMPI PUSH2 0x1869 PUSH0 PUSH2 0xB98 JUMP JUMPDEST SWAP2 POP JUMPDEST PUSH0 DUP4 SWAP1 POP PUSH0 DUP4 SWAP1 POP PUSH0 PUSH2 0x189D PUSH0 DUP5 DUP5 PUSH1 0x80 PUSH20 0xFFFFFFFFFFFFFFFFFFFFFFFFFFFFFFFFFFFFFFFF AND PUSH4 0x92348B34 PUSH2 0x1AEE JUMP JUMPDEST SWAP1 POP DUP1 SWAP4 POP POP POP POP SWAP3 SWAP2 POP POP JUMP JUMPDEST PUSH0 DUP1 DUP3 EQ ISZERO SWAP1 POP SWAP2 SWAP1 POP JUMP JUMPDEST PUSH0 PUSH2 0x18C2 DUP3 PUSH0 PUSH2 0x179C JUMP JUMPDEST SWAP1 POP SWAP2 SWAP1 POP JUMP JUMPDEST PUSH1 0x60 PUSH1 0x20 PUSH8 0xFFFFFFFFFFFFFFFF DUP2 GT ISZERO PUSH2 0x18E6 JUMPI PUSH2 0x18E5 PUSH2 0x2103 JUMP JUMPDEST JUMPDEST PUSH1 0x40 MLOAD SWAP1 DUP1 DUP3 MSTORE DUP1 PUSH1 0x1F ADD PUSH1 0x1F NOT AND PUSH1 0x20 ADD DUP3 ADD PUSH1 0x40 MSTORE DUP1 ISZERO PUSH2 0x1918 JUMPI DUP2 PUSH1 0x20 ADD PUSH1 0x1 DUP3 MUL DUP1 CALLDATASIZE DUP4 CALLDATACOPY DUP1 DUP3 ADD SWAP2 POP POP SWAP1 POP JUMPDEST POP SWAP1 POP DUP2 PUSH1 0x20 DUP3 ADD MSTORE SWAP2 SWAP1 POP JUMP JUMPDEST PUSH0 PUSH1 0x1 DUP3 PUSH2 0x1934 SWAP2 SWAP1 PUSH2 0x2528 JUMP JUMPDEST SWAP2 POP PUSH2 0x190 DUP3 PUSH2 0x1944 SWAP2 SWAP1 PUSH2 0x24C5 JUMP JUMPDEST PUSH1 0x64 DUP4 PUSH2 0x1951 SWAP2 SWAP1 PUSH2 0x24C5 JUMP JUMPDEST PUSH1 0x4 DUP5 PUSH2 0x195E SWAP2 SWAP1 PUSH2 0x24C5 JUMP JUMPDEST PUSH2 0x1968 SWAP2 SWAP1 PUSH2 0x2528 JUMP JUMPDEST PUSH2 0x1972 SWAP2 SWAP1 PUSH2 0x24F5 JUMP JUMPDEST SWAP1 POP SWAP2 SWAP1 POP JUMP JUMPDEST PUSH0 DUP1 PUSH1 0x4 DUP4 PUSH2 0x1988 SWAP2 SWAP1 PUSH2 0x2695 JUMP JUMPDEST EQ PUSH2 0x1995 JUMPI PUSH0 SWAP1 POP PUSH2 0x19D2 JUMP JUMPDEST PUSH0 PUSH1 0x64 DUP4 PUSH2 0x19A3 SWAP2 SWAP1 PUSH2 0x2695 JUMP JUMPDEST EQ PUSH2 0x19B1 JUMPI PUSH1 0x1 SWAP1 POP PUSH2 0x19D2 JUMP JUMPDEST PUSH0 PUSH2 0x190 DUP4 PUSH2 0x19C0 SWAP2 SWAP1 PUSH2 0x2695 JUMP JUMPDEST EQ PUSH2 0x19CD JUMPI PUSH0 SWAP1 POP PUSH2 0x19D2 JUMP JUMPDEST PUSH1 0x1 SWAP1 POP JUMPDEST SWAP2 SWAP1 POP JUMP JUMPDEST PUSH0 PUSH2 0x19E1 DUP4 PUSH2 0x1B7D JUMP JUMPDEST PUSH2 0x19F1 JUMPI PUSH2 0x19EE PUSH0 PUSH2 0xDF7 JUMP JUMPDEST SWAP3 POP JUMPDEST PUSH2 0x19FA DUP3 PUSH2 0x1B7D JUMP JUMPDEST PUSH2 0x1A0A JUMPI PUSH2 0x1A07 PUSH0 PUSH2 0xDF7 JUMP JUMPDEST SWAP2 POP JUMPDEST PUSH0 DUP4 SWAP1 POP PUSH0 DUP4 SWAP1 POP PUSH0 PUSH2 0x1A3B PUSH1 0x1 DUP5 DUP5 PUSH1 0x80 PUSH20 0xFFFFFFFFFFFFFFFFFFFFFFFFFFFFFFFFFFFFFFFF AND PUSH3 0x2DF619 PUSH2 0x1AEE JUMP JUMPDEST SWAP1 POP DUP1 SWAP4 POP POP POP POP SWAP3 SWAP2 POP POP JUMP JUMPDEST PUSH0 PUSH2 0x1A53 DUP4 PUSH2 0x1B7D JUMP JUMPDEST PUSH2 0x1A63 JUMPI PUSH2 0x1A60 PUSH0 PUSH2 0xDF7 JUMP JUMPDEST SWAP3 POP JUMPDEST PUSH2 0x1A6C DUP3 PUSH2 0x1B7D JUMP JUMPDEST PUSH2 0x1A7C JUMPI PUSH2 0x1A79 PUSH0 PUSH2 0xDF7 JUMP JUMPDEST SWAP2 POP JUMPDEST PUSH0 DUP4 SWAP1 POP PUSH0 DUP4 SWAP1 POP PUSH0 PUSH2 0x1AAE PUSH1 0x1 DUP5 DUP5 PUSH1 0x80 PUSH20 0xFFFFFFFFFFFFFFFFFFFFFFFFFFFFFFFFFFFFFFFF AND PUSH4 0x874B1C10 PUSH2 0x1AEE JUMP JUMPDEST SWAP1 POP DUP1 SWAP4 POP POP POP POP SWAP3 SWAP2 POP POP JUMP JUMPDEST PUSH0 PUSH2 0x1AC7 DUP3 PUSH0 PUSH2 0x1B89 JUMP JUMPDEST SWAP1 POP SWAP2 SWAP1 POP JUMP JUMPDEST PUSH0 PUSH2 0x1ADA DUP3 PUSH1 0x1 PUSH2 0x1B89 JUMP JUMPDEST SWAP1 POP SWAP2 SWAP1 POP JUMP JUMPDEST PUSH0 PUSH1 0x20 DUP3 ADD MLOAD SWAP1 POP SWAP2 SWAP1 POP JUMP JUMPDEST PUSH0 PUSH1 0x60 DUP4 DUP4 DUP9 PUSH2 0x1AFD DUP10 PUSH2 0x18C9 JUMP JUMPDEST PUSH2 0x1B06 DUP10 PUSH2 0x18C9 JUMP JUMPDEST PUSH1 0x40 MLOAD DUP5 PUSH4 0xFFFFFFFF AND PUSH1 0xE0 SHL DUP2 MSTORE PUSH1 0x4 ADD PUSH2 0x1B24 SWAP4 SWAP3 SWAP2 SWAP1 PUSH2 0x26C5 JUMP JUMPDEST PUSH0 PUSH1 0x40 MLOAD DUP1 DUP4 SUB DUP2 DUP7 GAS STATICCALL ISZERO DUP1 ISZERO PUSH2 0x1B3E JUMPI RETURNDATASIZE PUSH0 DUP1 RETURNDATACOPY RETURNDATASIZE PUSH0 REVERT JUMPDEST POP POP POP POP PUSH1 0x40 MLOAD RETURNDATASIZE PUSH0 DUP3 RETURNDATACOPY RETURNDATASIZE PUSH1 0x1F NOT PUSH1 0x1F DUP3 ADD AND DUP3 ADD DUP1 PUSH1 0x40 MSTORE POP DUP2 ADD SWAP1 PUSH2 0x1B66 SWAP2 SWAP1 PUSH2 0x2424 JUMP JUMPDEST SWAP1 POP PUSH2 0x1B71 DUP2 PUSH2 0x1C1E JUMP JUMPDEST SWAP2 POP POP SWAP6 SWAP5 POP POP POP POP POP JUMP JUMPDEST PUSH0 DUP1 DUP3 EQ ISZERO SWAP1 POP SWAP2 SWAP1 POP JUMP JUMPDEST PUSH0 PUSH1 0x60 PUSH1 0x80 PUSH20 0xFFFFFFFFFFFFFFFFFFFFFFFFFFFFFFFFFFFFFFFF AND PUSH4 0x5FA55CA7 DUP5 DUP7 PUSH1 0x40 MLOAD DUP4 PUSH4 0xFFFFFFFF AND PUSH1 0xE0 SHL DUP2 MSTORE PUSH1 0x4 ADD PUSH2 0x1BC8 SWAP3 SWAP2 SWAP1 PUSH2 0x2388 JUMP JUMPDEST PUSH0 PUSH1 0x40 MLOAD DUP1 DUP4 SUB DUP2 DUP7 GAS STATICCALL ISZERO DUP1 ISZERO PUSH2 0x1BE2 JUMPI RETURNDATASIZE PUSH0 DUP1 RETURNDATACOPY RETURNDATASIZE PUSH0 REVERT JUMPDEST POP POP POP POP PUSH1 0x40 MLOAD RETURNDATASIZE PUSH0 DUP3 RETURNDATACOPY RETURNDATASIZE PUSH1 0x1F NOT PUSH1 0x1F DUP3 ADD AND DUP3 ADD DUP1 PUSH1 0x40 MSTORE POP DUP2 ADD SWAP1 PUSH2 0x1C0A SWAP2 SWAP1 PUSH2 0x2424 JUMP JUMPDEST SWAP1 POP PUSH2 0x1C15 DUP2 PUSH2 0x1AE1 JUMP JUMPDEST SWAP2 POP POP SWAP3 SWAP2 POP POP JUMP JUMPDEST PUSH0 PUSH1 0x20 DUP3 ADD MLOAD SWAP1 POP SWAP2 SWAP1 POP JUMP JUMPDEST PUSH1 0x40 MLOAD DUP1 PUSH1 0x60 ADD PUSH1 0x40 MSTORE DUP1 PUSH0 PUSH2 0xFFFF AND DUP2 MSTORE PUSH1 0x20 ADD PUSH0 PUSH1 0xFF AND DUP2 MSTORE PUSH1 0x20 ADD PUSH0 PUSH1 0xFF AND DUP2 MSTORE POP SWAP1 JUMP JUMPDEST PUSH1 0x40 MLOAD DUP1 PUSH2 0x180 ADD PUSH1 0x40 MSTORE DUP1 PUSH1 0xC SWAP1 PUSH1 0x20 DUP3 MUL DUP1 CALLDATASIZE DUP4 CALLDATACOPY DUP1 DUP3 ADD SWAP2 POP POP SWAP1 POP POP SWAP1 JUMP JUMPDEST PUSH0 DUP2 MLOAD SWAP1 POP SWAP2 SWAP1 POP JUMP JUMPDEST PUSH0 DUP3 DUP3 MSTORE PUSH1 0x20 DUP3 ADD SWAP1 POP SWAP3 SWAP2 POP POP JUMP JUMPDEST PUSH0 JUMPDEST DUP4 DUP2 LT ISZERO PUSH2 0x1CAD JUMPI DUP1 DUP3 ADD MLOAD DUP2 DUP5 ADD MSTORE PUSH1 0x20 DUP2 ADD SWAP1 POP PUSH2 0x1C92 JUMP JUMPDEST PUSH0 DUP5 DUP5 ADD MSTORE POP POP POP POP JUMP JUMPDEST PUSH0 PUSH1 0x1F NOT PUSH1 0x1F DUP4 ADD AND SWAP1 POP SWAP2 SWAP1 POP JUMP JUMPDEST PUSH0 PUSH2 0x1CD2 DUP3 PUSH2 0x1C76 JUMP JUMPDEST PUSH2 0x1CDC DUP2 DUP6 PUSH2 0x1C80 JUMP JUMPDEST SWAP4 POP PUSH2 0x1CEC DUP2 DUP6 PUSH1 0x20 DUP7 ADD PUSH2 0x1C90 JUMP JUMPDEST PUSH2 0x1CF5 DUP2 PUSH2 0x1CB8 JUMP JUMPDEST DUP5 ADD SWAP2 POP POP SWAP3 SWAP2 POP POP JUMP JUMPDEST PUSH0 PUSH1 0x20 DUP3 ADD SWAP1 POP DUP2 DUP2 SUB PUSH0 DUP4 ADD MSTORE PUSH2 0x1D18 DUP2 DUP5 PUSH2 0x1CC8 JUMP JUMPDEST SWAP1 POP SWAP3 SWAP2 POP POP JUMP JUMPDEST PUSH0 PUSH1 0x40 MLOAD SWAP1 POP SWAP1 JUMP JUMPDEST PUSH0 DUP1 REVERT JUMPDEST PUSH0 DUP1 REVERT JUMPDEST PUSH0 PUSH20 0xFFFFFFFFFFFFFFFFFFFFFFFFFFFFFFFFFFFFFFFF DUP3 AND SWAP1 POP SWAP2 SWAP1 POP JUMP JUMPDEST PUSH0 PUSH2 0x1D5A DUP3 PUSH2 0x1D31 JUMP JUMPDEST SWAP1 POP SWAP2 SWAP1 POP JUMP JUMPDEST PUSH2 0x1D6A DUP2 PUSH2 0x1D50 JUMP JUMPDEST DUP2 EQ PUSH2 0x1D74 JUMPI PUSH0 DUP1 REVERT JUMPDEST POP JUMP JUMPDEST PUSH0 DUP2 CALLDATALOAD SWAP1 POP PUSH2 0x1D85 DUP2 PUSH2 0x1D61 JUMP JUMPDEST SWAP3 SWAP2 POP POP JUMP JUMPDEST PUSH0 DUP2 SWAP1 POP SWAP2 SWAP1 POP JUMP JUMPDEST PUSH2 0x1D9D DUP2 PUSH2 0x1D8B JUMP JUMPDEST DUP2 EQ PUSH2 0x1DA7 JUMPI PUSH0 DUP1 REVERT JUMPDEST POP JUMP JUMPDEST PUSH0 DUP2 CALLDATALOAD SWAP1 POP PUSH2 0x1DB8 DUP2 PUSH2 0x1D94 JUMP JUMPDEST SWAP3 SWAP2 POP POP JUMP JUMPDEST PUSH0 DUP1 PUSH1 0x40 DUP4 DUP6 SUB SLT ISZERO PUSH2 0x1DD4 JUMPI PUSH2 0x1DD3 PUSH2 0x1D29 JUMP JUMPDEST JUMPDEST PUSH0 PUSH2 0x1DE1 DUP6 DUP3 DUP7 ADD PUSH2 0x1D77 JUMP JUMPDEST SWAP3 POP POP PUSH1 0x20 PUSH2 0x1DF2 DUP6 DUP3 DUP7 ADD PUSH2 0x1DAA JUMP JUMPDEST SWAP2 POP POP SWAP3 POP SWAP3 SWAP1 POP JUMP JUMPDEST PUSH0 DUP2 ISZERO ISZERO SWAP1 POP SWAP2 SWAP1 POP JUMP JUMPDEST PUSH2 0x1E10 DUP2 PUSH2 0x1DFC JUMP JUMPDEST DUP3 MSTORE POP POP JUMP JUMPDEST PUSH0 PUSH1 0x20 DUP3 ADD SWAP1 POP PUSH2 0x1E29 PUSH0 DUP4 ADD DUP5 PUSH2 0x1E07 JUMP JUMPDEST SWAP3 SWAP2 POP POP JUMP JUMPDEST PUSH2 0x1E38 DUP2 PUSH2 0x1D8B JUMP JUMPDEST DUP3 MSTORE POP POP JUMP JUMPDEST PUSH0 PUSH1 0x20 DUP3 ADD SWAP1 POP PUSH2 0x1E51 PUSH0 DUP4 ADD DUP5 PUSH2 0x1E2F JUMP JUMPDEST SWAP3 SWAP2 POP POP JUMP JUMPDEST PUSH0 DUP1 PUSH0 PUSH1 0x60 DUP5 DUP7 SUB SLT ISZERO PUSH2 0x1E6E JUMPI PUSH2 0x1E6D PUSH2 0x1D29 JUMP JUMPDEST JUMPDEST PUSH0 PUSH2 0x1E7B DUP7 DUP3 DUP8 ADD PUSH2 0x1D77 JUMP JUMPDEST SWAP4 POP POP PUSH1 0x20 PUSH2 0x1E8C DUP7 DUP3 DUP8 ADD PUSH2 0x1D77 JUMP JUMPDEST SWAP3 POP POP PUSH1 0x40 PUSH2 0x1E9D DUP7 DUP3 DUP8 ADD PUSH2 0x1DAA JUMP JUMPDEST SWAP2 POP POP SWAP3 POP SWAP3 POP SWAP3 JUMP JUMPDEST PUSH0 PUSH1 0xFF DUP3 AND SWAP1 POP SWAP2 SWAP1 POP JUMP JUMPDEST PUSH2 0x1EBC DUP2 PUSH2 0x1EA7 JUMP JUMPDEST DUP3 MSTORE POP POP JUMP JUMPDEST PUSH0 PUSH1 0x20 DUP3 ADD SWAP1 POP PUSH2 0x1ED5 PUSH0 DUP4 ADD DUP5 PUSH2 0x1EB3 JUMP JUMPDEST SWAP3 SWAP2 POP POP JUMP JUMPDEST PUSH0 PUSH1 0x20 DUP3 DUP5 SUB SLT ISZERO PUSH2 0x1EF0 JUMPI PUSH2 0x1EEF PUSH2 0x1D29 JUMP JUMPDEST JUMPDEST PUSH0 PUSH2 0x1EFD DUP5 DUP3 DUP6 ADD PUSH2 0x1DAA JUMP JUMPDEST SWAP2 POP POP SWAP3 SWAP2 POP POP JUMP JUMPDEST PUSH0 PUSH1 0x20 DUP3 DUP5 SUB SLT ISZERO PUSH2 0x1F1B JUMPI PUSH2 0x1F1A PUSH2 0x1D29 JUMP JUMPDEST JUMPDEST PUSH0 PUSH2 0x1F28 DUP5 DUP3 DUP6 ADD PUSH2 0x1D77 JUMP JUMPDEST SWAP2 POP POP SWAP3 SWAP2 POP POP JUMP JUMPDEST PUSH2 0x1F3A DUP2 PUSH2 0x1D50 JUMP JUMPDEST DUP3 MSTORE POP POP JUMP JUMPDEST PUSH0 PUSH1 0x20 DUP3 ADD SWAP1 POP PUSH2 0x1F53 PUSH0 DUP4 ADD DUP5 PUSH2 0x1F31 JUMP JUMPDEST SWAP3 SWAP2 POP POP JUMP JUMPDEST PUSH0 DUP1 PUSH1 0x40 DUP4 DUP6 SUB SLT ISZERO PUSH2 0x1F6F JUMPI PUSH2 0x1F6E PUSH2 0x1D29 JUMP JUMPDEST JUMPDEST PUSH0 PUSH2 0x1F7C DUP6 DUP3 DUP7 ADD PUSH2 0x1D77 JUMP JUMPDEST SWAP3 POP POP PUSH1 0x20 PUSH2 0x1F8D DUP6 DUP3 DUP7 ADD PUSH2 0x1D77 JUMP JUMPDEST SWAP2 POP POP SWAP3 POP SWAP3 SWAP1 POP JUMP JUMPDEST PUSH0 DUP1 REVERT JUMPDEST PUSH0 PUSH1 0x20 DUP3 DUP5 SUB SLT ISZERO PUSH2 0x1FB0 JUMPI PUSH2 0x1FAF PUSH2 0x1F97 JUMP JUMPDEST JUMPDEST DUP2 SWAP1 POP SWAP3 SWAP2 POP POP JUMP JUMPDEST PUSH0 PUSH1 0x20 DUP3 DUP5 SUB SLT ISZERO PUSH2 0x1FCE JUMPI PUSH2 0x1FCD PUSH2 0x1F97 JUMP JUMPDEST JUMPDEST DUP2 SWAP1 POP SWAP3 SWAP2 POP POP JUMP JUMPDEST PUSH0 DUP1 PUSH0 PUSH1 0x60 DUP5 DUP7 SUB SLT ISZERO PUSH2 0x1FEE JUMPI PUSH2 0x1FED PUSH2 0x1D29 JUMP JUMPDEST JUMPDEST PUSH0 DUP5 ADD CALLDATALOAD PUSH8 0xFFFFFFFFFFFFFFFF DUP2 GT ISZERO PUSH2 0x200B JUMPI PUSH2 0x200A PUSH2 0x1D2D JUMP JUMPDEST JUMPDEST PUSH2 0x2017 DUP7 DUP3 DUP8 ADD PUSH2 0x1F9B JUMP JUMPDEST SWAP4 POP POP PUSH1 0x20 DUP5 ADD CALLDATALOAD PUSH8 0xFFFFFFFFFFFFFFFF DUP2 GT ISZERO PUSH2 0x2038 JUMPI PUSH2 0x2037 PUSH2 0x1D2D JUMP JUMPDEST JUMPDEST PUSH2 0x2044 DUP7 DUP3 DUP8 ADD PUSH2 0x1F9B JUMP JUMPDEST SWAP3 POP POP PUSH1 0x40 DUP5 ADD CALLDATALOAD PUSH8 0xFFFFFFFFFFFFFFFF DUP2 GT ISZERO PUSH2 0x2065 JUMPI PUSH2 0x2064 PUSH2 0x1D2D JUMP JUMPDEST JUMPDEST PUSH2 0x2071 DUP7 DUP3 DUP8 ADD PUSH2 0x1FB9 JUMP JUMPDEST SWAP2 POP POP SWAP3 POP SWAP3 POP SWAP3 JUMP JUMPDEST PUSH0 PUSH1 0x40 DUP3 ADD SWAP1 POP PUSH2 0x208E PUSH0 DUP4 ADD DUP6 PUSH2 0x1EB3 JUMP JUMPDEST PUSH2 0x209B PUSH1 0x20 DUP4 ADD DUP5 PUSH2 0x1EB3 JUMP JUMPDEST SWAP4 SWAP3 POP POP POP JUMP JUMPDEST PUSH32 0x4E487B7100000000000000000000000000000000000000000000000000000000 PUSH0 MSTORE PUSH1 0x22 PUSH1 0x4 MSTORE PUSH1 0x24 PUSH0 REVERT JUMPDEST PUSH0 PUSH1 0x2 DUP3 DIV SWAP1 POP PUSH1 0x1 DUP3 AND DUP1 PUSH2 0x20E6 JUMPI PUSH1 0x7F DUP3 AND SWAP2 POP JUMPDEST PUSH1 0x20 DUP3 LT DUP2 SUB PUSH2 0x20F9 JUMPI PUSH2 0x20F8 PUSH2 0x20A2 JUMP JUMPDEST JUMPDEST POP SWAP2 SWAP1 POP JUMP JUMPDEST PUSH0 DUP1 REVERT JUMPDEST PUSH32 0x4E487B7100000000000000000000000000000000000000000000000000000000 PUSH0 MSTORE PUSH1 0x41 PUSH1 0x4 MSTORE PUSH1 0x24 PUSH0 REVERT JUMPDEST PUSH2 0x2139 DUP3 PUSH2 0x1CB8 JUMP JUMPDEST DUP2 ADD DUP2 DUP2 LT PUSH8 0xFFFFFFFFFFFFFFFF DUP3 GT OR ISZERO PUSH2 0x2158 JUMPI PUSH2 0x2157 PUSH2 0x2103 JUMP JUMPDEST JUMPDEST DUP1 PUSH1 0x40 MSTORE POP POP POP JUMP JUMPDEST PUSH0 PUSH2 0x216A PUSH2 0x1D20 JUMP JUMPDEST SWAP1 POP PUSH2 0x2176 DUP3 DUP3 PUSH2 0x2130 JUMP JUMPDEST SWAP2 SWAP1 POP JUMP JUMPDEST PUSH0 DUP1 REVERT JUMPDEST PUSH0 DUP1 REVERT JUMPDEST PUSH0 DUP1 REVERT JUMPDEST PUSH0 PUSH8 0xFFFFFFFFFFFFFFFF DUP3 GT ISZERO PUSH2 0x21A1 JUMPI PUSH2 0x21A0 PUSH2 0x2103 JUMP JUMPDEST JUMPDEST PUSH2 0x21AA DUP3 PUSH2 0x1CB8 JUMP JUMPDEST SWAP1 POP PUSH1 0x20 DUP2 ADD SWAP1 POP SWAP2 SWAP1 POP JUMP JUMPDEST DUP3 DUP2 DUP4 CALLDATACOPY PUSH0 DUP4 DUP4 ADD MSTORE POP POP POP JUMP JUMPDEST PUSH0 PUSH2 0x21D7 PUSH2 0x21D2 DUP5 PUSH2 0x2187 JUMP JUMPDEST PUSH2 0x2161 JUMP JUMPDEST SWAP1 POP DUP3 DUP2 MSTORE PUSH1 0x20 DUP2 ADD DUP5 DUP5 DUP5 ADD GT ISZERO PUSH2 0x21F3 JUMPI PUSH2 0x21F2 PUSH2 0x2183 JUMP JUMPDEST JUMPDEST PUSH2 0x21FE DUP5 DUP3 DUP6 PUSH2 0x21B7 JUMP JUMPDEST POP SWAP4 SWAP3 POP POP POP JUMP JUMPDEST PUSH0 DUP3 PUSH1 0x1F DUP4 ADD SLT PUSH2 0x221A JUMPI PUSH2 0x2219 PUSH2 0x217F JUMP JUMPDEST JUMPDEST DUP2 CALLDATALOAD PUSH2 0x222A DUP5 DUP3 PUSH1 0x20 DUP7 ADD PUSH2 0x21C5 JUMP JUMPDEST SWAP2 POP POP SWAP3 SWAP2 POP POP JUMP JUMPDEST PUSH0 PUSH1 0x20 DUP3 DUP5 SUB SLT ISZERO PUSH2 0x2248 JUMPI PUSH2 0x2247 PUSH2 0x20FF JUMP JUMPDEST JUMPDEST PUSH2 0x2252 PUSH1 0x20 PUSH2 0x2161 JUMP JUMPDEST SWAP1 POP PUSH0 DUP3 ADD CALLDATALOAD PUSH8 0xFFFFFFFFFFFFFFFF DUP2 GT ISZERO PUSH2 0x2271 JUMPI PUSH2 0x2270 PUSH2 0x217B JUMP JUMPDEST JUMPDEST PUSH2 0x227D DUP5 DUP3 DUP6 ADD PUSH2 0x2206 JUMP JUMPDEST PUSH0 DUP4 ADD MSTORE POP SWAP3 SWAP2 POP POP JUMP JUMPDEST PUSH0 PUSH2 0x2293 CALLDATASIZE DUP4 PUSH2 0x2233 JUMP JUMPDEST SWAP1 POP SWAP2 SWAP1 POP JUMP JUMPDEST PUSH0 PUSH1 0x20 DUP3 DUP5 SUB SLT ISZERO PUSH2 0x22AF JUMPI PUSH2 0x22AE PUSH2 0x20FF JUMP JUMPDEST JUMPDEST PUSH2 0x22B9 PUSH1 0x20 PUSH2 0x2161 JUMP JUMPDEST SWAP1 POP PUSH0 DUP3 ADD CALLDATALOAD PUSH8 0xFFFFFFFFFFFFFFFF DUP2 GT ISZERO PUSH2 0x22D8 JUMPI PUSH2 0x22D7 PUSH2 0x217B JUMP JUMPDEST JUMPDEST PUSH2 0x22E4 DUP5 DUP3 DUP6 ADD PUSH2 0x2206 JUMP JUMPDEST PUSH0 DUP4 ADD MSTORE POP SWAP3 SWAP2 POP POP JUMP JUMPDEST PUSH0 PUSH2 0x22FA CALLDATASIZE DUP4 PUSH2 0x229A JUMP JUMPDEST SWAP1 POP SWAP2 SWAP1 POP JUMP JUMPDEST PUSH0 PUSH1 0x60 DUP3 ADD SWAP1 POP PUSH2 0x2314 PUSH0 DUP4 ADD DUP7 PUSH2 0x1F31 JUMP JUMPDEST PUSH2 0x2321 PUSH1 0x20 DUP4 ADD DUP6 PUSH2 0x1E2F JUMP JUMPDEST PUSH2 0x232E PUSH1 0x40 DUP4 ADD DUP5 PUSH2 0x1E2F JUMP JUMPDEST SWAP5 SWAP4 POP POP POP POP JUMP JUMPDEST PUSH0 DUP2 MLOAD SWAP1 POP SWAP2 SWAP1 POP JUMP JUMPDEST PUSH0 DUP3 DUP3 MSTORE PUSH1 0x20 DUP3 ADD SWAP1 POP SWAP3 SWAP2 POP POP JUMP JUMPDEST PUSH0 PUSH2 0x235A DUP3 PUSH2 0x2336 JUMP JUMPDEST PUSH2 0x2364 DUP2 DUP6 PUSH2 0x2340 JUMP JUMPDEST SWAP4 POP PUSH2 0x2374 DUP2 DUP6 PUSH1 0x20 DUP7 ADD PUSH2 0x1C90 JUMP JUMPDEST PUSH2 0x237D DUP2 PUSH2 0x1CB8 JUMP JUMPDEST DUP5 ADD SWAP2 POP POP SWAP3 SWAP2 POP POP JUMP JUMPDEST PUSH0 PUSH1 0x40 DUP3 ADD SWAP1 POP PUSH2 0x239B PUSH0 DUP4 ADD DUP6 PUSH2 0x1EB3 JUMP JUMPDEST DUP2 DUP2 SUB PUSH1 0x20 DUP4 ADD MSTORE PUSH2 0x23AD DUP2 DUP5 PUSH2 0x2350 JUMP JUMPDEST SWAP1 POP SWAP4 SWAP3 POP POP POP JUMP JUMPDEST PUSH0 PUSH2 0x23C8 PUSH2 0x23C3 DUP5 PUSH2 0x2187 JUMP JUMPDEST PUSH2 0x2161 JUMP JUMPDEST SWAP1 POP DUP3 DUP2 MSTORE PUSH1 0x20 DUP2 ADD DUP5 DUP5 DUP5 ADD GT ISZERO PUSH2 0x23E4 JUMPI PUSH2 0x23E3 PUSH2 0x2183 JUMP JUMPDEST JUMPDEST PUSH2 0x23EF DUP5 DUP3 DUP6 PUSH2 0x1C90 JUMP JUMPDEST POP SWAP4 SWAP3 POP POP POP JUMP JUMPDEST PUSH0 DUP3 PUSH1 0x1F DUP4 ADD SLT PUSH2 0x240B JUMPI PUSH2 0x240A PUSH2 0x217F JUMP JUMPDEST JUMPDEST DUP2 MLOAD PUSH2 0x241B DUP5 DUP3 PUSH1 0x20 DUP7 ADD PUSH2 0x23B6 JUMP JUMPDEST SWAP2 POP POP SWAP3 SWAP2 POP POP JUMP JUMPDEST PUSH0 PUSH1 0x20 DUP3 DUP5 SUB SLT ISZERO PUSH2 0x2439 JUMPI PUSH2 0x2438 PUSH2 0x1D29 JUMP JUMPDEST JUMPDEST PUSH0 DUP3 ADD MLOAD PUSH8 0xFFFFFFFFFFFFFFFF DUP2 GT ISZERO PUSH2 0x2456 JUMPI PUSH2 0x2455 PUSH2 0x1D2D JUMP JUMPDEST JUMPDEST PUSH2 0x2462 DUP5 DUP3 DUP6 ADD PUSH2 0x23F7 JUMP JUMPDEST SWAP2 POP POP SWAP3 SWAP2 POP POP JUMP JUMPDEST PUSH32 0x4E487B7100000000000000000000000000000000000000000000000000000000 PUSH0 MSTORE PUSH1 0x12 PUSH1 0x4 MSTORE PUSH1 0x24 PUSH0 REVERT JUMPDEST PUSH32 0x4E487B7100000000000000000000000000000000000000000000000000000000 PUSH0 MSTORE PUSH1 0x11 PUSH1 0x4 MSTORE PUSH1 0x24 PUSH0 REVERT JUMPDEST PUSH0 PUSH2 0x24CF DUP3 PUSH2 0x1D8B JUMP JUMPDEST SWAP2 POP PUSH2 0x24DA DUP4 PUSH2 0x1D8B JUMP JUMPDEST SWAP3 POP DUP3 PUSH2 0x24EA JUMPI PUSH2 0x24E9 PUSH2 0x246B JUMP JUMPDEST JUMPDEST DUP3 DUP3 DIV SWAP1 POP SWAP3 SWAP2 POP POP JUMP JUMPDEST PUSH0 PUSH2 0x24FF DUP3 PUSH2 0x1D8B JUMP JUMPDEST SWAP2 POP PUSH2 0x250A DUP4 PUSH2 0x1D8B JUMP JUMPDEST SWAP3 POP DUP3 DUP3 ADD SWAP1 POP DUP1 DUP3 GT ISZERO PUSH2 0x2522 JUMPI PUSH2 0x2521 PUSH2 0x2498 JUMP JUMPDEST JUMPDEST SWAP3 SWAP2 POP POP JUMP JUMPDEST PUSH0 PUSH2 0x2532 DUP3 PUSH2 0x1D8B JUMP JUMPDEST SWAP2 POP PUSH2 0x253D DUP4 PUSH2 0x1D8B JUMP JUMPDEST SWAP3 POP DUP3 DUP3 SUB SWAP1 POP DUP2 DUP2 GT ISZERO PUSH2 0x2555 JUMPI PUSH2 0x2554 PUSH2 0x2498 JUMP JUMPDEST JUMPDEST SWAP3 SWAP2 POP POP JUMP JUMPDEST PUSH0 PUSH2 0x2565 DUP3 PUSH2 0x1D8B JUMP JUMPDEST SWAP2 POP PUSH2 0x2570 DUP4 PUSH2 0x1D8B JUMP JUMPDEST SWAP3 POP DUP3 DUP3 MUL PUSH2 0x257E DUP2 PUSH2 0x1D8B JUMP JUMPDEST SWAP2 POP DUP3 DUP3 DIV DUP5 EQ DUP4 ISZERO OR PUSH2 0x2595 JUMPI PUSH2 0x2594 PUSH2 0x2498 JUMP JUMPDEST JUMPDEST POP SWAP3 SWAP2 POP POP JUMP JUMPDEST PUSH0 PUSH2 0xFFFF DUP3 AND SWAP1 POP SWAP2 SWAP1 POP JUMP JUMPDEST PUSH0 PUSH2 0x25B3 DUP3 PUSH2 0x259C JUMP JUMPDEST SWAP2 POP PUSH2 0x25BE DUP4 PUSH2 0x259C JUMP JUMPDEST SWAP3 POP DUP3 DUP3 SUB SWAP1 POP PUSH2 0xFFFF DUP2 GT ISZERO PUSH2 0x25D8 JUMPI PUSH2 0x25D7 PUSH2 0x2498 JUMP JUMPDEST JUMPDEST SWAP3 SWAP2 POP POP JUMP JUMPDEST PUSH32 0x4E487B7100000000000000000000000000000000000000000000000000000000 PUSH0 MSTORE PUSH1 0x32 PUSH1 0x4 MSTORE PUSH1 0x24 PUSH0 REVERT JUMPDEST PUSH0 PUSH2 0x2615 DUP3 PUSH2 0x1EA7 JUMP JUMPDEST SWAP2 POP PUSH2 0x2620 DUP4 PUSH2 0x1EA7 JUMP JUMPDEST SWAP3 POP DUP3 DUP3 SUB SWAP1 POP PUSH1 0xFF DUP2 GT ISZERO PUSH2 0x2639 JUMPI PUSH2 0x2638 PUSH2 0x2498 JUMP JUMPDEST JUMPDEST SWAP3 SWAP2 POP POP JUMP JUMPDEST PUSH0 PUSH2 0x2649 DUP3 PUSH2 0x1EA7 JUMP JUMPDEST SWAP2 POP PUSH1 0xFF DUP3 SUB PUSH2 0x265C JUMPI PUSH2 0x265B PUSH2 0x2498 JUMP JUMPDEST JUMPDEST PUSH1 0x1 DUP3 ADD SWAP1 POP SWAP2 SWAP1 POP JUMP JUMPDEST PUSH0 PUSH1 0x40 DUP3 ADD SWAP1 POP DUP2 DUP2 SUB PUSH0 DUP4 ADD MSTORE PUSH2 0x267F DUP2 DUP6 PUSH2 0x2350 JUMP JUMPDEST SWAP1 POP PUSH2 0x268E PUSH1 0x20 DUP4 ADD DUP5 PUSH2 0x1EB3 JUMP JUMPDEST SWAP4 SWAP3 POP POP POP JUMP JUMPDEST PUSH0 PUSH2 0x269F DUP3 PUSH2 0x1D8B JUMP JUMPDEST SWAP2 POP PUSH2 0x26AA DUP4 PUSH2 0x1D8B JUMP JUMPDEST SWAP3 POP DUP3 PUSH2 0x26BA JUMPI PUSH2 0x26B9 PUSH2 0x246B JUMP JUMPDEST JUMPDEST DUP3 DUP3 MOD SWAP1 POP SWAP3 SWAP2 POP POP JUMP JUMPDEST PUSH0 PUSH1 0x60 DUP3 ADD SWAP1 POP PUSH2 0x26D8 PUSH0 DUP4 ADD DUP7 PUSH2 0x1EB3 JUMP JUMPDEST DUP2 DUP2 SUB PUSH1 0x20 DUP4 ADD MSTORE PUSH2 0x26EA DUP2 DUP6 PUSH2 0x2350 JUMP JUMPDEST SWAP1 POP DUP2 DUP2 SUB PUSH1 0x40 DUP4 ADD MSTORE PUSH2 0x26FE DUP2 DUP5 PUSH2 0x2350 JUMP JUMPDEST SWAP1 POP SWAP5 SWAP4 POP POP POP POP JUMP INVALID LOG2 PUSH5 0x6970667358 0x22 SLT KECCAK256 0xB2 EQ 0xA6 PUSH16 0x9E32CF940BBBE92D799ACAF4645433B5 0xC0 RETURNDATASIZE 0xD0 DUP16 0xD1 0x4D 0xDE 0xED 0xE MUL SDIV CALLVALUE PUSH5 0x736F6C6343 STOP ADDMOD XOR STOP CALLER "
		},
		"gasEstimates": {
			"creation": {
				"codeDepositCost": "2009200",
				"executionCost": "infinite",
				"totalCost": "infinite"
			},
			"external": {
				"allowance(address,address)": "infinite",
				"approve(address,uint256)": "infinite",
				"balanceOf(address)": "2940",
				"decimals()": "361",
				"getDay(uint256)": "infinite",
				"getDayAndMonth(uint256)": "infinite",
				"getMonth(uint256)": "infinite",
				"mint_ifBirthday()": "infinite",
				"mint_ifOver65()": "infinite",
				"name()": "infinite",
				"owner()": "2560",
				"renounceOwnership()": "infinite",
				"set_bday((bytes),(bytes),(bytes))": "infinite",
				"symbol()": "infinite",
				"totalSupply()": "2500",
				"transfer(address,uint256)": "infinite",
				"transferFrom(address,address,uint256)": "infinite",
				"transferOwnership(address)": "infinite"
			},
			"internal": {
				"getYear(uint256)": "infinite",
				"isLeapYear(uint256)": "infinite",
				"leapYearsBefore(uint256)": "infinite",
				"parseTimestamp(uint256)": "infinite"
			}
		},
		"methodIdentifiers": {
			"allowance(address,address)": "dd62ed3e",
			"approve(address,uint256)": "095ea7b3",
			"balanceOf(address)": "70a08231",
			"decimals()": "313ce567",
			"getDay(uint256)": "65c72840",
			"getDayAndMonth(uint256)": "ff4130dc",
			"getMonth(uint256)": "a324ad24",
			"mint_ifBirthday()": "343b9066",
			"mint_ifOver65()": "4513a9a3",
			"name()": "06fdde03",
			"owner()": "8da5cb5b",
			"renounceOwnership()": "715018a6",
			"set_bday((bytes),(bytes),(bytes))": "f6cece52",
			"symbol()": "95d89b41",
			"totalSupply()": "18160ddd",
			"transfer(address,uint256)": "a9059cbb",
			"transferFrom(address,address,uint256)": "23b872dd",
			"transferOwnership(address)": "f2fde38b"
		}
	},
	"abi": [
		{
			"inputs": [],
			"stateMutability": "nonpayable",
			"type": "constructor"
		},
		{
			"inputs": [
				{
					"internalType": "address",
					"name": "spender",
					"type": "address"
				},
				{
					"internalType": "uint256",
					"name": "allowance",
					"type": "uint256"
				},
				{
					"internalType": "uint256",
					"name": "needed",
					"type": "uint256"
				}
			],
			"name": "ERC20InsufficientAllowance",
			"type": "error"
		},
		{
			"inputs": [
				{
					"internalType": "address",
					"name": "sender",
					"type": "address"
				},
				{
					"internalType": "uint256",
					"name": "balance",
					"type": "uint256"
				},
				{
					"internalType": "uint256",
					"name": "needed",
					"type": "uint256"
				}
			],
			"name": "ERC20InsufficientBalance",
			"type": "error"
		},
		{
			"inputs": [
				{
					"internalType": "address",
					"name": "approver",
					"type": "address"
				}
			],
			"name": "ERC20InvalidApprover",
			"type": "error"
		},
		{
			"inputs": [
				{
					"internalType": "address",
					"name": "receiver",
					"type": "address"
				}
			],
			"name": "ERC20InvalidReceiver",
			"type": "error"
		},
		{
			"inputs": [
				{
					"internalType": "address",
					"name": "sender",
					"type": "address"
				}
			],
			"name": "ERC20InvalidSender",
			"type": "error"
		},
		{
			"inputs": [
				{
					"internalType": "address",
					"name": "spender",
					"type": "address"
				}
			],
			"name": "ERC20InvalidSpender",
			"type": "error"
		},
		{
			"inputs": [
				{
					"internalType": "address",
					"name": "owner",
					"type": "address"
				}
			],
			"name": "OwnableInvalidOwner",
			"type": "error"
		},
		{
			"inputs": [
				{
					"internalType": "address",
					"name": "account",
					"type": "address"
				}
			],
			"name": "OwnableUnauthorizedAccount",
			"type": "error"
		},
		{
			"anonymous": false,
			"inputs": [
				{
					"indexed": true,
					"internalType": "address",
					"name": "owner",
					"type": "address"
				},
				{
					"indexed": true,
					"internalType": "address",
					"name": "spender",
					"type": "address"
				},
				{
					"indexed": false,
					"internalType": "uint256",
					"name": "value",
					"type": "uint256"
				}
			],
			"name": "Approval",
			"type": "event"
		},
		{
			"anonymous": false,
			"inputs": [
				{
					"indexed": true,
					"internalType": "address",
					"name": "previousOwner",
					"type": "address"
				},
				{
					"indexed": true,
					"internalType": "address",
					"name": "newOwner",
					"type": "address"
				}
			],
			"name": "OwnershipTransferred",
			"type": "event"
		},
		{
			"anonymous": false,
			"inputs": [
				{
					"indexed": true,
					"internalType": "address",
					"name": "from",
					"type": "address"
				},
				{
					"indexed": true,
					"internalType": "address",
					"name": "to",
					"type": "address"
				},
				{
					"indexed": false,
					"internalType": "uint256",
					"name": "value",
					"type": "uint256"
				}
			],
			"name": "Transfer",
			"type": "event"
		},
		{
			"inputs": [
				{
					"internalType": "address",
					"name": "owner",
					"type": "address"
				},
				{
					"internalType": "address",
					"name": "spender",
					"type": "address"
				}
			],
			"name": "allowance",
			"outputs": [
				{
					"internalType": "uint256",
					"name": "",
					"type": "uint256"
				}
			],
			"stateMutability": "view",
			"type": "function"
		},
		{
			"inputs": [
				{
					"internalType": "address",
					"name": "spender",
					"type": "address"
				},
				{
					"internalType": "uint256",
					"name": "value",
					"type": "uint256"
				}
			],
			"name": "approve",
			"outputs": [
				{
					"internalType": "bool",
					"name": "",
					"type": "bool"
				}
			],
			"stateMutability": "nonpayable",
			"type": "function"
		},
		{
			"inputs": [
				{
					"internalType": "address",
					"name": "account",
					"type": "address"
				}
			],
			"name": "balanceOf",
			"outputs": [
				{
					"internalType": "uint256",
					"name": "",
					"type": "uint256"
				}
			],
			"stateMutability": "view",
			"type": "function"
		},
		{
			"inputs": [],
			"name": "decimals",
			"outputs": [
				{
					"internalType": "uint8",
					"name": "",
					"type": "uint8"
				}
			],
			"stateMutability": "view",
			"type": "function"
		},
		{
			"inputs": [
				{
					"internalType": "uint256",
					"name": "timestamp",
					"type": "uint256"
				}
			],
			"name": "getDay",
			"outputs": [
				{
					"internalType": "uint8",
					"name": "",
					"type": "uint8"
				}
			],
			"stateMutability": "pure",
			"type": "function"
		},
		{
			"inputs": [
				{
					"internalType": "uint256",
					"name": "timestamp",
					"type": "uint256"
				}
			],
			"name": "getDayAndMonth",
			"outputs": [
				{
					"internalType": "uint8",
					"name": "",
					"type": "uint8"
				},
				{
					"internalType": "uint8",
					"name": "",
					"type": "uint8"
				}
			],
			"stateMutability": "pure",
			"type": "function"
		},
		{
			"inputs": [
				{
					"internalType": "uint256",
					"name": "timestamp",
					"type": "uint256"
				}
			],
			"name": "getMonth",
			"outputs": [
				{
					"internalType": "uint8",
					"name": "",
					"type": "uint8"
				}
			],
			"stateMutability": "pure",
			"type": "function"
		},
		{
			"inputs": [],
			"name": "mint_ifBirthday",
			"outputs": [],
			"stateMutability": "nonpayable",
			"type": "function"
		},
		{
			"inputs": [],
			"name": "mint_ifOver65",
			"outputs": [],
			"stateMutability": "nonpayable",
			"type": "function"
		},
		{
			"inputs": [],
			"name": "name",
			"outputs": [
				{
					"internalType": "string",
					"name": "",
					"type": "string"
				}
			],
			"stateMutability": "view",
			"type": "function"
		},
		{
			"inputs": [],
			"name": "owner",
			"outputs": [
				{
					"internalType": "address",
					"name": "",
					"type": "address"
				}
			],
			"stateMutability": "view",
			"type": "function"
		},
		{
			"inputs": [],
			"name": "renounceOwnership",
			"outputs": [],
			"stateMutability": "nonpayable",
			"type": "function"
		},
		{
			"inputs": [
				{
					"components": [
						{
							"internalType": "bytes",
							"name": "data",
							"type": "bytes"
						}
					],
					"internalType": "struct inEuint8",
					"name": "day",
					"type": "tuple"
				},
				{
					"components": [
						{
							"internalType": "bytes",
							"name": "data",
							"type": "bytes"
						}
					],
					"internalType": "struct inEuint8",
					"name": "month",
					"type": "tuple"
				},
				{
					"components": [
						{
							"internalType": "bytes",
							"name": "data",
							"type": "bytes"
						}
					],
					"internalType": "struct inEuint16",
					"name": "year",
					"type": "tuple"
				}
			],
			"name": "set_bday",
			"outputs": [],
			"stateMutability": "nonpayable",
			"type": "function"
		},
		{
			"inputs": [],
			"name": "symbol",
			"outputs": [
				{
					"internalType": "string",
					"name": "",
					"type": "string"
				}
			],
			"stateMutability": "view",
			"type": "function"
		},
		{
			"inputs": [],
			"name": "totalSupply",
			"outputs": [
				{
					"internalType": "uint256",
					"name": "",
					"type": "uint256"
				}
			],
			"stateMutability": "view",
			"type": "function"
		},
		{
			"inputs": [
				{
					"internalType": "address",
					"name": "to",
					"type": "address"
				},
				{
					"internalType": "uint256",
					"name": "value",
					"type": "uint256"
				}
			],
			"name": "transfer",
			"outputs": [
				{
					"internalType": "bool",
					"name": "",
					"type": "bool"
				}
			],
			"stateMutability": "nonpayable",
			"type": "function"
		},
		{
			"inputs": [
				{
					"internalType": "address",
					"name": "from",
					"type": "address"
				},
				{
					"internalType": "address",
					"name": "to",
					"type": "address"
				},
				{
					"internalType": "uint256",
					"name": "value",
					"type": "uint256"
				}
			],
			"name": "transferFrom",
			"outputs": [
				{
					"internalType": "bool",
					"name": "",
					"type": "bool"
				}
			],
			"stateMutability": "nonpayable",
			"type": "function"
		},
		{
			"inputs": [
				{
					"internalType": "address",
					"name": "newOwner",
					"type": "address"
				}
			],
			"name": "transferOwnership",
			"outputs": [],
			"stateMutability": "nonpayable",
			"type": "function"
		}
	]
}